{
  "address": "0xC94cA420C85D840ADd4C07D1351730f948C25EC1",
  "abi": [
    {
      "inputs": [],
      "stateMutability": "nonpayable",
      "type": "constructor"
    },
    {
      "inputs": [],
      "name": "ActorNotFound",
      "type": "error"
    },
    {
      "inputs": [],
      "name": "FailToCallActor",
      "type": "error"
    },
    {
      "inputs": [],
      "name": "InvalidAddress",
      "type": "error"
    },
    {
      "inputs": [
        {
          "internalType": "uint64",
          "name": "",
          "type": "uint64"
        }
      ],
      "name": "InvalidCodec",
      "type": "error"
    },
    {
      "inputs": [],
      "name": "InvalidResponseLength",
      "type": "error"
    },
    {
      "inputs": [],
      "name": "NegativeValueNotAllowed",
      "type": "error"
    },
    {
      "inputs": [
        {
          "internalType": "uint256",
          "name": "balance",
          "type": "uint256"
        },
        {
          "internalType": "uint256",
          "name": "value",
          "type": "uint256"
        }
      ],
      "name": "NotEnoughBalance",
      "type": "error"
    },
    {
      "anonymous": false,
      "inputs": [
        {
          "indexed": true,
          "internalType": "bytes32",
          "name": "id",
          "type": "bytes32"
        },
        {
          "indexed": false,
          "internalType": "uint64",
          "name": "size",
          "type": "uint64"
        },
        {
          "indexed": true,
          "internalType": "bool",
          "name": "verified",
          "type": "bool"
        },
        {
          "indexed": false,
          "internalType": "uint256",
          "name": "price",
          "type": "uint256"
        }
      ],
      "name": "DealProposalCreate",
      "type": "event"
    },
    {
      "anonymous": false,
      "inputs": [
        {
          "indexed": false,
          "internalType": "string",
          "name": "received",
          "type": "string"
        }
      ],
      "name": "ReceivedDataCap",
      "type": "event"
    },
    {
      "inputs": [],
      "name": "AUTHENTICATE_MESSAGE_METHOD_NUM",
      "outputs": [
        {
          "internalType": "uint64",
          "name": "",
          "type": "uint64"
        }
      ],
      "stateMutability": "view",
      "type": "function"
    },
    {
      "inputs": [],
      "name": "DATACAP_ACTOR_ETH_ADDRESS",
      "outputs": [
        {
          "internalType": "address",
          "name": "",
          "type": "address"
        }
      ],
      "stateMutability": "view",
      "type": "function"
    },
    {
      "inputs": [],
      "name": "DATACAP_RECEIVER_HOOK_METHOD_NUM",
      "outputs": [
        {
          "internalType": "uint64",
          "name": "",
          "type": "uint64"
        }
      ],
      "stateMutability": "view",
      "type": "function"
    },
    {
      "inputs": [],
      "name": "MARKET_ACTOR_ETH_ADDRESS",
      "outputs": [
        {
          "internalType": "address",
          "name": "",
          "type": "address"
        }
      ],
      "stateMutability": "view",
      "type": "function"
    },
    {
      "inputs": [],
      "name": "MARKET_NOTIFY_DEAL_METHOD_NUM",
      "outputs": [
        {
          "internalType": "uint64",
          "name": "",
          "type": "uint64"
        }
      ],
      "stateMutability": "view",
      "type": "function"
    },
    {
      "inputs": [
        {
          "internalType": "uint256",
          "name": "value",
          "type": "uint256"
        }
      ],
      "name": "addBalance",
      "outputs": [],
      "stateMutability": "nonpayable",
      "type": "function"
    },
    {
      "inputs": [
        {
          "internalType": "bytes32",
          "name": "",
          "type": "bytes32"
        }
      ],
      "name": "dealRequestIdx",
      "outputs": [
        {
          "internalType": "uint256",
          "name": "idx",
          "type": "uint256"
        },
        {
          "internalType": "bool",
          "name": "valid",
          "type": "bool"
        }
      ],
      "stateMutability": "view",
      "type": "function"
    },
    {
      "inputs": [
        {
          "internalType": "uint256",
          "name": "",
          "type": "uint256"
        }
      ],
      "name": "dealRequests",
      "outputs": [
        {
          "internalType": "bytes",
          "name": "piece_cid",
          "type": "bytes"
        },
        {
          "internalType": "uint64",
          "name": "piece_size",
          "type": "uint64"
        },
        {
          "internalType": "bool",
          "name": "verified_deal",
          "type": "bool"
        },
        {
          "internalType": "string",
          "name": "label",
          "type": "string"
        },
        {
          "internalType": "int64",
          "name": "start_epoch",
          "type": "int64"
        },
        {
          "internalType": "int64",
          "name": "end_epoch",
          "type": "int64"
        },
        {
          "internalType": "uint256",
          "name": "storage_price_per_epoch",
          "type": "uint256"
        },
        {
          "internalType": "uint256",
          "name": "provider_collateral",
          "type": "uint256"
        },
        {
          "internalType": "uint256",
          "name": "client_collateral",
          "type": "uint256"
        },
        {
          "internalType": "uint64",
          "name": "extra_params_version",
          "type": "uint64"
        },
        {
          "components": [
            {
              "internalType": "string",
              "name": "location_ref",
              "type": "string"
            },
            {
              "internalType": "uint64",
              "name": "car_size",
              "type": "uint64"
            },
            {
              "internalType": "bool",
              "name": "skip_ipni_announce",
              "type": "bool"
            },
            {
              "internalType": "bool",
              "name": "remove_unsealed_copy",
              "type": "bool"
            }
          ],
          "internalType": "struct ExtraParamsV1",
          "name": "extra_params",
          "type": "tuple"
        }
      ],
      "stateMutability": "view",
      "type": "function"
    },
    {
      "inputs": [],
      "name": "dealsLength",
      "outputs": [
        {
          "internalType": "uint256",
          "name": "",
          "type": "uint256"
        }
      ],
      "stateMutability": "view",
      "type": "function"
    },
    {
      "inputs": [
        {
          "internalType": "uint256",
          "name": "index",
          "type": "uint256"
        }
      ],
      "name": "getDealByIndex",
      "outputs": [
        {
          "components": [
            {
              "internalType": "bytes",
              "name": "piece_cid",
              "type": "bytes"
            },
            {
              "internalType": "uint64",
              "name": "piece_size",
              "type": "uint64"
            },
            {
              "internalType": "bool",
              "name": "verified_deal",
              "type": "bool"
            },
            {
              "internalType": "string",
              "name": "label",
              "type": "string"
            },
            {
              "internalType": "int64",
              "name": "start_epoch",
              "type": "int64"
            },
            {
              "internalType": "int64",
              "name": "end_epoch",
              "type": "int64"
            },
            {
              "internalType": "uint256",
              "name": "storage_price_per_epoch",
              "type": "uint256"
            },
            {
              "internalType": "uint256",
              "name": "provider_collateral",
              "type": "uint256"
            },
            {
              "internalType": "uint256",
              "name": "client_collateral",
              "type": "uint256"
            },
            {
              "internalType": "uint64",
              "name": "extra_params_version",
              "type": "uint64"
            },
            {
              "components": [
                {
                  "internalType": "string",
                  "name": "location_ref",
                  "type": "string"
                },
                {
                  "internalType": "uint64",
                  "name": "car_size",
                  "type": "uint64"
                },
                {
                  "internalType": "bool",
                  "name": "skip_ipni_announce",
                  "type": "bool"
                },
                {
                  "internalType": "bool",
                  "name": "remove_unsealed_copy",
                  "type": "bool"
                }
              ],
              "internalType": "struct ExtraParamsV1",
              "name": "extra_params",
              "type": "tuple"
            }
          ],
          "internalType": "struct DealRequest",
          "name": "",
          "type": "tuple"
        }
      ],
      "stateMutability": "view",
      "type": "function"
    },
    {
      "inputs": [
        {
          "internalType": "bytes32",
          "name": "proposalId",
          "type": "bytes32"
        }
      ],
      "name": "getDealProposal",
      "outputs": [
        {
          "internalType": "bytes",
          "name": "",
          "type": "bytes"
        }
      ],
      "stateMutability": "view",
      "type": "function"
    },
    {
      "inputs": [
        {
          "internalType": "bytes32",
          "name": "proposalId",
          "type": "bytes32"
        }
      ],
      "name": "getExtraParams",
      "outputs": [
        {
          "internalType": "bytes",
          "name": "extra_params",
          "type": "bytes"
        }
      ],
      "stateMutability": "view",
      "type": "function"
    },
    {
      "inputs": [
        {
          "internalType": "bytes",
          "name": "cid",
          "type": "bytes"
        }
      ],
      "name": "getProposalIdSet",
      "outputs": [
        {
          "components": [
            {
              "internalType": "bytes32",
              "name": "requestId",
              "type": "bytes32"
            },
            {
              "internalType": "bool",
              "name": "valid",
              "type": "bool"
            }
          ],
          "internalType": "struct RequestId",
          "name": "",
          "type": "tuple"
        }
      ],
      "stateMutability": "view",
      "type": "function"
    },
    {
      "inputs": [
        {
          "internalType": "bytes",
          "name": "cid",
          "type": "bytes"
        }
      ],
      "name": "getProviderSet",
      "outputs": [
        {
          "components": [
            {
              "internalType": "bytes",
              "name": "provider",
              "type": "bytes"
            },
            {
              "internalType": "bool",
              "name": "valid",
              "type": "bool"
            }
          ],
          "internalType": "struct ProviderSet",
          "name": "",
          "type": "tuple"
        }
      ],
      "stateMutability": "view",
      "type": "function"
    },
    {
      "inputs": [
        {
          "internalType": "uint64",
          "name": "method",
          "type": "uint64"
        },
        {
          "internalType": "uint64",
          "name": "",
          "type": "uint64"
        },
        {
          "internalType": "bytes",
          "name": "params",
          "type": "bytes"
        }
      ],
      "name": "handle_filecoin_method",
      "outputs": [
        {
          "internalType": "uint32",
          "name": "",
          "type": "uint32"
        },
        {
          "internalType": "uint64",
          "name": "",
          "type": "uint64"
        },
        {
          "internalType": "bytes",
          "name": "",
          "type": "bytes"
        }
      ],
      "stateMutability": "nonpayable",
      "type": "function"
    },
    {
      "inputs": [
        {
          "components": [
            {
              "internalType": "bytes",
              "name": "piece_cid",
              "type": "bytes"
            },
            {
              "internalType": "uint64",
              "name": "piece_size",
              "type": "uint64"
            },
            {
              "internalType": "bool",
              "name": "verified_deal",
              "type": "bool"
            },
            {
              "internalType": "string",
              "name": "label",
              "type": "string"
            },
            {
              "internalType": "int64",
              "name": "start_epoch",
              "type": "int64"
            },
            {
              "internalType": "int64",
              "name": "end_epoch",
              "type": "int64"
            },
            {
              "internalType": "uint256",
              "name": "storage_price_per_epoch",
              "type": "uint256"
            },
            {
              "internalType": "uint256",
              "name": "provider_collateral",
              "type": "uint256"
            },
            {
              "internalType": "uint256",
              "name": "client_collateral",
              "type": "uint256"
            },
            {
              "internalType": "uint64",
              "name": "extra_params_version",
              "type": "uint64"
            },
            {
              "components": [
                {
                  "internalType": "string",
                  "name": "location_ref",
                  "type": "string"
                },
                {
                  "internalType": "uint64",
                  "name": "car_size",
                  "type": "uint64"
                },
                {
                  "internalType": "bool",
                  "name": "skip_ipni_announce",
                  "type": "bool"
                },
                {
                  "internalType": "bool",
                  "name": "remove_unsealed_copy",
                  "type": "bool"
                }
              ],
              "internalType": "struct ExtraParamsV1",
              "name": "extra_params",
              "type": "tuple"
            }
          ],
          "internalType": "struct DealRequest",
          "name": "deal",
          "type": "tuple"
        }
      ],
      "name": "makeDealProposal",
      "outputs": [
        {
          "internalType": "bytes32",
          "name": "",
          "type": "bytes32"
        }
      ],
      "stateMutability": "nonpayable",
      "type": "function"
    },
    {
      "inputs": [],
      "name": "owner",
      "outputs": [
        {
          "internalType": "address",
          "name": "",
          "type": "address"
        }
      ],
      "stateMutability": "view",
      "type": "function"
    },
    {
      "inputs": [
        {
          "internalType": "bytes",
          "name": "",
          "type": "bytes"
        }
      ],
      "name": "pieceDeals",
      "outputs": [
        {
          "internalType": "uint64",
          "name": "",
          "type": "uint64"
        }
      ],
      "stateMutability": "view",
      "type": "function"
    },
    {
      "inputs": [
        {
          "internalType": "bytes",
          "name": "",
          "type": "bytes"
        }
      ],
      "name": "pieceProviders",
      "outputs": [
        {
          "internalType": "bytes",
          "name": "provider",
          "type": "bytes"
        },
        {
          "internalType": "bool",
          "name": "valid",
          "type": "bool"
        }
      ],
      "stateMutability": "view",
      "type": "function"
    },
    {
      "inputs": [
        {
          "internalType": "bytes",
          "name": "",
          "type": "bytes"
        }
      ],
      "name": "pieceRequests",
      "outputs": [
        {
          "internalType": "bytes32",
          "name": "requestId",
          "type": "bytes32"
        },
        {
          "internalType": "bool",
          "name": "valid",
          "type": "bool"
        }
      ],
      "stateMutability": "view",
      "type": "function"
    },
    {
      "inputs": [
        {
          "internalType": "bytes",
          "name": "",
          "type": "bytes"
        }
      ],
      "name": "pieceStatus",
      "outputs": [
        {
          "internalType": "enum DealClient.Status",
          "name": "",
          "type": "uint8"
        }
      ],
      "stateMutability": "view",
      "type": "function"
    },
    {
      "inputs": [
        {
          "internalType": "bytes",
          "name": "pieceCid",
          "type": "bytes"
        }
      ],
      "name": "updateActivationStatus",
      "outputs": [],
      "stateMutability": "nonpayable",
      "type": "function"
    },
    {
      "inputs": [
        {
          "internalType": "address",
          "name": "client",
          "type": "address"
        },
        {
          "internalType": "uint256",
          "name": "value",
          "type": "uint256"
        }
      ],
      "name": "withdrawBalance",
      "outputs": [
        {
          "internalType": "uint256",
          "name": "",
          "type": "uint256"
        }
      ],
      "stateMutability": "nonpayable",
      "type": "function"
    }
  ],
  "transactionHash": "0xe1cfb35d62df24df753819291c07b93310e929279943639bc78b6876de553d6e",
  "args": [],
  "numDeployments": 1,
  "solcInputHash": "449e206792ac9fe217f6273edad8f61e",
  "bytecode": "0x608060405234801561001057600080fd5b50600680546001600160a01b0319163317905561581e80620000336000396000f3fe608060405234801561001057600080fd5b506004361061018c5760003560e01c8063868e10c4116100e3578063be965ce71161008c578063f44a890311610066578063f44a890314610423578063f4b2e4d814610453578063f82704f01461046657600080fd5b8063be965ce7146103e2578063d91921ed146103fd578063dd27fe901461041057600080fd5b8063a6d1b7b8116100bd578063a6d1b7b814610372578063b34ba252146103ad578063bad79de9146103b857600080fd5b8063868e10c41461031d5780638da5cb5b1461033f57806396925ae61461035257600080fd5b806329aa3d2a116101455780636067f4541161011f5780636067f454146102dd57806366263735146102e857806378133bb2146102fd57600080fd5b806329aa3d2a146102555780634634aed5146102885780634e8a3ca4146102a857600080fd5b80630cf20cc9116101765780630cf20cc9146101ed5780631adf7eb11461020e578063297ab4861461024d57600080fd5b8062706790146101915780630a0e0c91146101b9575b600080fd5b61019c639d8b067881565b6040516001600160401b0390911681526020015b60405180910390f35b61019c6101c7366004614a43565b80516020818301810180516004825292820191909301209152546001600160401b031681565b6102006101fb366004614a77565b610487565b6040519081526020016101b0565b61023861021c366004614aaf565b6000602081905290815260409020805460019091015460ff1682565b604080519283529015156020830152016101b0565b600154610200565b61027073ff0000000000000000000000000000000000000581565b6040516001600160a01b0390911681526020016101b0565b61029b610296366004614aaf565b610651565b6040516101b09190614b18565b6102386102b6366004614a43565b80516020818301810180516002825292820191909301209152805460019091015460ff1682565b61019c63f98c996681565b6102fb6102f6366004614a43565b610675565b005b61031061030b366004614b2b565b61083c565b6040516101b09190614b9c565b61033061032b366004614be8565b610926565b6040516101b093929190614c49565b600654610270906001600160a01b031681565b610365610360366004614aaf565b610a38565b6040516101b09190614cc3565b6103a0610380366004614a43565b805160208183018101805160058252928201919093012091525460ff1681565b6040516101b09190614dd4565b61019c63de180de381565b6103cb6103c6366004614aaf565b610d6a565b6040516101b09b9a99989796959493929190614dfc565b61027073ff0000000000000000000000000000000000000781565b6102fb61040b366004614aaf565b610fea565b61020061041e366004614e92565b611066565b610436610431366004614b2b565b61134b565b6040805182518152602092830151151592810192909252016101b0565b61029b610461366004614aaf565b6113a4565b610479610474366004614a43565b6114dc565b6040516101b0929190614ecd565b6006546000906001600160a01b031633146104a157600080fd5b60408051606080820183528183018190528251602081018452600160fa1b81850152600560f91b60418201529086901b6bffffffffffffffffffffffff1916604282015282516036818303018152605682019093529182526000918190815260200161050c8561158e565b9052905060008061051c836115d4565b915091508160001461059b5760405162461bcd60e51b815260206004820152602f60248201527f57697468647261772062616c616e6365206661696c65642077697468206e6f6e60448201527f207a65726f206578697420636f6465000000000000000000000000000000000060648201526084015b60405180910390fd5b6000806105a783611657565b91509150806106445760405162461bcd60e51b815260206004820152604860248201527f50726f626c656d7320636f6e76657274696e672077697468647261772062616c60448201527f616e636520696e746f2042696720496e742c206d617920636175736520616e2060648201527f6f766572666c6f77000000000000000000000000000000000000000000000000608482015260a401610592565b5093505050505b92915050565b6060600061065e836116f1565b905061066e816101400151611a9f565b9392505050565b60006004826040516106879190614ef1565b908152604051908190036020019020546001600160401b0316116107125760405162461bcd60e51b8152602060048201526024808201527f6e6f206465616c207075626c697368656420666f72207468697320706965636560448201527f20636964000000000000000000000000000000000000000000000000000000006064820152608401610592565b6000806107466004846040516107289190614ef1565b908152604051908190036020019020546001600160401b0316611b00565b91509150816000146107c05760405162461bcd60e51b815260206004820152603260248201527f476574206465616c2061637469766174696f6e206661696c656420776974682060448201527f6e6f6e207a65726f206578697420636f646500000000000000000000000000006064820152608401610592565b6000816020015160070b13156108155760046005846040516107e29190614ef1565b908152604051908190036020019020805460ff1916600183600481111561080b5761080b614dbe565b0217905550505050565b6000816000015160070b13156108375760036005846040516107e29190614ef1565b505050565b60408051808201909152606081526000602082015260038383604051610863929190614f0d565b908152602001604051809103902060405180604001604052908160008201805461088c90614f1d565b80601f01602080910402602001604051908101604052809291908181526020018280546108b890614f1d565b80156109055780601f106108da57610100808354040283529160200191610905565b820191906000526020600020905b8154815290600101906020018083116108e857829003601f168201915b50505091835250506001919091015460ff1615156020909101529392505050565b60008060608082639d8b0677196001600160401b038916016109795761094b86611b72565b60006109576001611fd4565b9050610964816001611ff5565b61096d81612010565b92506051915050610a28565b63f98c9965196001600160401b0389160161099c576109978661206c565b610a28565b63de180de2196001600160401b038916016109ba57610997866122de565b60405162461bcd60e51b815260206004820152603260248201527f7468652066696c65636f696e206d6574686f642074686174207761732063616c60448201527f6c6564206973206e6f742068616e646c656400000000000000000000000000006064820152608401610592565b6000989097509095509350505050565b610ab26040805161016081018252606080825260006020808401829052838501829052828401839052608080850183905260a0850183905260c0850183905260e085018390526101008501839052610120850183905285519081018652838152908101829052938401819052908301529061014082015290565b60018281548110610ac557610ac5614f51565b90600052602060002090600a020160405180610160016040529081600082018054610aef90614f1d565b80601f0160208091040260200160405190810160405280929190818152602001828054610b1b90614f1d565b8015610b685780601f10610b3d57610100808354040283529160200191610b68565b820191906000526020600020905b815481529060010190602001808311610b4b57829003601f168201915b505050918352505060018201546001600160401b0381166020830152600160401b900460ff1615156040820152600282018054606090920191610baa90614f1d565b80601f0160208091040260200160405190810160405280929190818152602001828054610bd690614f1d565b8015610c235780601f10610bf857610100808354040283529160200191610c23565b820191906000526020600020905b815481529060010190602001808311610c0657829003601f168201915b50505091835250506003820154600781810b6020840152600160401b909104810b604080840191909152600484015460608401526005840154608080850191909152600685015460a0850152918401546001600160401b031660c08401528051918201905260088301805460e09093019282908290610ca190614f1d565b80601f0160208091040260200160405190810160405280929190818152602001828054610ccd90614f1d565b8015610d1a5780601f10610cef57610100808354040283529160200191610d1a565b820191906000526020600020905b815481529060010190602001808311610cfd57829003601f168201915b5050509183525050600191909101546001600160401b038116602083015260ff600160401b8204811615156040840152690100000000000000000090910416151560609091015290525092915050565b60018181548110610d7a57600080fd5b90600052602060002090600a0201600091509050806000018054610d9d90614f1d565b80601f0160208091040260200160405190810160405280929190818152602001828054610dc990614f1d565b8015610e165780601f10610deb57610100808354040283529160200191610e16565b820191906000526020600020905b815481529060010190602001808311610df957829003601f168201915b50505050600183015460028401805493946001600160401b03831694600160401b90930460ff16935091610e4990614f1d565b80601f0160208091040260200160405190810160405280929190818152602001828054610e7590614f1d565b8015610ec25780601f10610e9757610100808354040283529160200191610ec2565b820191906000526020600020905b815481529060010190602001808311610ea557829003601f168201915b5050506003840154600485015460058601546006870154600780890154604080516080810190915260088b0180549a9b88850b9b600160401b90990490940b9950959750939592946001600160401b0390911693919282908290610f2590614f1d565b80601f0160208091040260200160405190810160405280929190818152602001828054610f5190614f1d565b8015610f9e5780601f10610f7357610100808354040283529160200191610f9e565b820191906000526020600020905b815481529060010190602001808311610f8157829003601f168201915b5050509183525050600191909101546001600160401b038116602083015260ff600160401b8204811615156040840152690100000000000000000090910416151560609091015290508b565b6006546001600160a01b0316331461100157600080fd5b61083761106030604080516020808201835260609182905282519081018352600160fa1b81840152600560f91b604182015292901b6bffffffffffffffffffffffff191660428301528051603681840301815260568301909152815290565b826123d1565b6006546000906001600160a01b0316331461108057600080fd5b6002600561108e8480614f67565b60405161109c929190614f0d565b9081526040519081900360200190205460ff1660048111156110c0576110c0614dbe565b14806111095750600360056110d58480614f67565b6040516110e3929190614f0d565b9081526040519081900360200190205460ff16600481111561110757611107614dbe565b145b1561117c5760405162461bcd60e51b815260206004820152602960248201527f6465616c2077697468207468697320706965636543696420616c72656164792060448201527f7075626c697368656400000000000000000000000000000000000000000000006064820152608401610592565b60018054808201825560009190915282600a82027fb10e2d527612073b26eecdfd717e6a320cf44b4afac2b0732d9fcbe2b7fa0cf6016111bc8282615276565b5050604080514260208201526bffffffffffffffffffffffff193360601b16918101919091526054810182905260009060740160408051808303601f1901815282825280516020918201208383018352858452600182850181815260008381528085528590209551865551948101805460ff191695151595909517909455825180840190935280835290820192909252909150600261125b8680614f67565b604051611269929190614f0d565b90815260405160209181900382019020825181559101516001918201805460ff191691151591909117905560056112a08680614f67565b6040516112ae929190614f0d565b908152604051908190036020019020805460ff191660018360048111156112d7576112d7614dbe565b02179055506112ec606085016040860161539e565b1515817ffd6419d07e4c269e58d0c63969756c2124155b4a8d6dd08b8cd46e3a9acbf62561132060408801602089016153bb565b604080516001600160401b03909216825260c089013560208301520160405180910390a39392505050565b604080518082019091526000808252602082015260028383604051611371929190614f0d565b9081526040805191829003602090810183208383019092528154835260019091015460ff16151590820152905092915050565b606060006113b1836116f1565b90506113bb614840565b604080516020808201835284518252908352838101516001600160401b031683820152838201511515838301528151808201835260609081905282519182018352600160fa1b82840152600560f91b604183015230901b6bffffffffffffffffffffffff1916604282015281516036818303018152605682019092529081526060820152611449600061242e565b60808083019190915260408051808201909152606084015181526001602082015260a08084019190915290830151600790810b60c08085019190915291840151900b60e083015282015161149c9061158e565b61010082015260e08201516114b09061158e565b6101208201526101008201516114c59061158e565b6101408201526114d481612481565b949350505050565b805160208183018101805160038252928201919093012091528054819061150290614f1d565b80601f016020809104026020016040519081016040528092919081815260200182805461152e90614f1d565b801561157b5780601f106115505761010080835404028352916020019161157b565b820191906000526020600020905b81548152906001019060200180831161155e57829003601f168201915b5050506001909301549192505060ff1682565b60408051808201909152606081526000602082015260006115b08360006126b1565b60408051808201909152815181526020918201511515918101919091529392505050565b60408051808201909152606081526000602082018190529060006115f784612704565b905060008061161160056387ed0a6460518660008061279e565b9150915081600003611634576000611628826128b1565b94509450505050915091565b6040805180820190915260608152600060208201525b9196919550909350505050565b600080826020015115611696576040517f83041cea00000000000000000000000000000000000000000000000000000000815260040160405180910390fd5b60006116a560001960006126b1565b905060006116bb85600001518660200151612915565b90506116c78183612947565b156116da57506000946001945092505050565b80516116e5906153d8565b95600095509350505050565b61176b6040805161016081018252606080825260006020808401829052838501829052828401839052608080850183905260a0850183905260c0850183905260e085018390526101008501839052610120850183905285519081018652838152908101829052938401819052908301529061014082015290565b600082815260208181526040918290208251808401909352805483526001015460ff1615159082018190526117e25760405162461bcd60e51b815260206004820152601860248201527f70726f706f73616c4964206e6f7420617661696c61626c6500000000000000006044820152606401610592565b60018160000151815481106117f9576117f9614f51565b90600052602060002090600a02016040518061016001604052908160008201805461182390614f1d565b80601f016020809104026020016040519081016040528092919081815260200182805461184f90614f1d565b801561189c5780601f106118715761010080835404028352916020019161189c565b820191906000526020600020905b81548152906001019060200180831161187f57829003601f168201915b505050918352505060018201546001600160401b0381166020830152600160401b900460ff16151560408201526002820180546060909201916118de90614f1d565b80601f016020809104026020016040519081016040528092919081815260200182805461190a90614f1d565b80156119575780601f1061192c57610100808354040283529160200191611957565b820191906000526020600020905b81548152906001019060200180831161193a57829003601f168201915b50505091835250506003820154600781810b6020840152600160401b909104810b604080840191909152600484015460608401526005840154608080850191909152600685015460a0850152918401546001600160401b031660c08401528051918201905260088301805460e090930192829082906119d590614f1d565b80601f0160208091040260200160405190810160405280929190818152602001828054611a0190614f1d565b8015611a4e5780601f10611a2357610100808354040283529160200191611a4e565b820191906000526020600020905b815481529060010190602001808311611a3157829003601f168201915b5050509183525050600191909101546001600160401b038116602083015260ff600160401b820481161515604084015269010000000000000000009091041615156060909101529052509392505050565b60606000611aad6040611fd4565b9050611aba816004612971565b8251611ac790829061297d565b6020830151611ad7908290612996565b6040830151611ae7908290611ff5565b6060830151611af7908290611ff5565b61066e81612010565b60408051808201909152600080825260208201819052906000611b2b846001600160401b03166129a2565b9050600080611b426005639904f2ff6051866129da565b9150915081600003611b5957600061162882612a04565b604080518082019091526000808252602082015261164a565b3373ff0000000000000000000000000000000000000514611be55760405162461bcd60e51b815260206004820152602760248201527f6d73672e73656e646572206e6565647320746f206265206d61726b6574206163604482015266746f722066303560c81b6064820152608401610592565b6000611bf082612a68565b90506000611c018260200151612ac4565b80515160405191925090600290611c19908390614ef1565b9081526040519081900360200190206001015460ff16611c8e5760405162461bcd60e51b815260206004820152602a60248201527f706965636520636964206d757374206265206164646564206265666f726520616044820152697574686f72697a696e6760b01b6064820152608401610592565b600381604051611c9e9190614ef1565b9081526040519081900360200190206001015460ff1615611d275760405162461bcd60e51b815260206004820152603b60248201527f6465616c206661696c656420706f6c69637920636865636b3a2070726f76696460448201527f657220616c726561647920636c61696d656420746869732063696400000000006064820152608401610592565b6000611d51600283604051611d3c9190614ef1565b908152604051908190036020019020546116f1565b9050806040015115158360400151151514611dae5760405162461bcd60e51b815260206004820152601c60248201527f76657269666965645f6465616c20706172616d206d69736d61746368000000006044820152606401610592565b600080611dbf856101000151611657565b915091508015611e415760405162461bcd60e51b815260206004820152604160248201527f49737375657320636f6e76657274696e672075696e7432353620746f2042696760448201527f496e742c206d6179206e6f7420686176652061636375726174652076616c75656064820152607360f81b608482015260a401610592565b600080611e52876101400151611657565b915091508015611ed45760405162461bcd60e51b815260206004820152604160248201527f49737375657320636f6e76657274696e672075696e7432353620746f2042696760448201527f496e742c206d6179206e6f7420686176652061636375726174652076616c75656064820152607360f81b608482015260a401610592565b8460c00151841115611f4e5760405162461bcd60e51b815260206004820152602960248201527f73746f726167652070726963652067726561746572207468616e20726571756560448201527f737420616d6f756e7400000000000000000000000000000000000000000000006064820152608401610592565b846101000151821115611fc95760405162461bcd60e51b815260206004820152602d60248201527f636c69656e7420636f6c6c61746572616c2067726561746572207468616e207260448201527f65717565737420616d6f756e74000000000000000000000000000000000000006064820152608401610592565b505050505050505050565b611fdc61494b565b8051611fe89083612c11565b5060006020820152919050565b61200c8282612005576014612c88565b6015612c88565b5050565b606081602001516000146120665760405162461bcd60e51b815260206004820152600c60248201527f496e76616c69642043424f5200000000000000000000000000000000000000006044820152606401610592565b50515190565b3373ff00000000000000000000000000000000000005146120df5760405162461bcd60e51b815260206004820152602760248201527f6d73672e73656e646572206e6565647320746f206265206d61726b6574206163604482015266746f722066303560c81b6064820152608401610592565b60006120ea82612c97565b905060006120fb8260000151612ac4565b8051516040519192506002916121119190614ef1565b9081526040519081900360200190206001015460ff166121865760405162461bcd60e51b815260206004820152602a60248201527f706965636520636964206d757374206265206164646564206265666f726520616044820152697574686f72697a696e6760b01b6064820152608401610592565b80515160405160039161219891614ef1565b9081526040519081900360200190206001015460ff16156122215760405162461bcd60e51b815260206004820152603b60248201527f6465616c206661696c656420706f6c69637920636865636b3a2070726f76696460448201527f657220616c726561647920636c61696d656420746869732063696400000000006064820152608401610592565b6040805180820182526080830151518152600160208201528251519151909160039161224d9190614ef1565b9081526040519081900360200190208151819061226a90826153fc565b50602091820151600191909101805460ff191691151591909117905582015181515160405160049161229b91614ef1565b90815260405190819003602001812080546001600160401b039390931667ffffffffffffffff19909316929092179091558151516002916005916107e291614ef1565b3373ff00000000000000000000000000000000000007146123675760405162461bcd60e51b815260206004820152602860248201527f6d73672e73656e646572206e6565647320746f2062652064617461636170206160448201527f63746f72206630370000000000000000000000000000000000000000000000006064820152608401610592565b7f10aa319ed8cad9bceb033c0c2788c4ae17469ac844e4c6e2c2e20e74ca8a7be86040516123c69060208082526011908201527f4461746143617020526563656976656421000000000000000000000000000000604082015260600190565b60405180910390a150565b6000606060006123e085612cfd565b90506000806123fa6005633105f1a66051868a600061279e565b91509150805160001461242057604051630e74990760e01b815260040160405180910390fd5b9093509150505b9250929050565b604080516020810190915260608152600061244883612d2b565b6040805160208101825282519293509182916124689160009184016154bb565b60408051601f1981840301815291905290529392505050565b6060600080612494846101000151612d82565b905060006124a6856101200151612d82565b905060006124b8866101400151612d82565b90506124c4600b612e96565b6124ce9085615501565b8651519094506124dd90612ee4565b6124e79085615501565b93506124ff86602001516001600160401b0316612e96565b6125099085615501565b9350612513612efc565b61251d9085615501565b9350612530866060015160000151612f0d565b61253a9085615501565b935061254d866080015160000151612f0d565b6125579085615501565b935061256a8660a0015160000151612f0d565b6125749085615501565b93506125838660c00151612f1b565b61258d9085615501565b935061259c8660e00151612f1b565b6125a69085615501565b93506125b183612f0d565b6125bb9085615501565b93506125c682612f0d565b6125d09085615501565b93506125db81612f0d565b6125e59085615501565b935060006125f285611fd4565b90506125ff81600b612971565b86515161260d908290612f5e565b602087015161261d908290612996565b604087015161262d908290611ff5565b60608701515161263e908290612fa1565b60808701515161264f908290612fa1565b60a087015161265f908290612fae565b60c087015161266f908290612fd1565b60e087015161267f908290612fd1565b6126898185612fa1565b6126938184612fa1565b61269d8183612fa1565b6126a681612010565b979650505050505050565b6126d7604051806060016040528060608152602001600015158152602001600081525090565b61066e836040516020016126ed91815260200190565b604051602081830303815290604052836000612fdb565b60606000806127168460200151612d82565b90506127226002612e96565b61272c9083615501565b84515190925061273b90612f0d565b6127459083615501565b915061275081612f0d565b61275a9083615501565b9150600061276783611fd4565b9050612774816002612971565b845151612782908290612fa1565b61278c8183612fa1565b61279581612010565b95945050505050565b600060606127c073fe00000000000000000000000000000000000005856130bc565b60008073fe000000000000000000000000000000000000058987876127e65760006127e9565b60015b8b8b8f60405160200161280196959493929190615514565b60408051601f198184030181529082905261281b91614ef1565b600060405180830381855af49150503d8060008114612856576040519150601f19603f3d011682016040523d82523d6000602084013e61285b565b606091505b509150915081612897576040517f8a7db5bf00000000000000000000000000000000000000000000000000000000815260040160405180910390fd5b6128a081613142565b935093505050965096945050505050565b6040805180820190915260608082526000602083018190528351156128ef576128da848261322a565b81519193509150156128ef576114d4826133e3565b505060408051600081830181815260608301909352918152602081019190915292915050565b61293b604051806060016040528060608152602001600015158152602001600081525090565b61066e83836000612fdb565b60008061295684846001613535565b9050806001146129675760006114d4565b6001949350505050565b61200c8260048361366e565b61298a8260038351613675565b8151610837908261378e565b61200c82600083613675565b606060006129b8836001600160401b0316612e96565b905060006129c582611fd4565b90506129d18185612996565b6114d481612010565b6000606061279e806129f58888888888600163ffffffff8816565b93509350505094509492505050565b6040805180820190915260008082526020820152600080612a2584826137af565b9250905060028114612a3957612a39615563565b612a43848361382b565b60079190910b84529150612a57848361382b565b5060070b6020840152509092915050565b6040805180820190915260608082526020820152600080612a8984826137af565b9250905060028114612a9d57612a9d615563565b612aa7848361322a565b9084529150612ab6848361322a565b506020840152509092915050565b612acc614840565b6000806060612adb85836137af565b93509150600b8214612aef57612aef615563565b612af98584613845565b9085529250612b088584613abd565b6001600160401b0390911660208601529250612b248584613b54565b90151560408601529250612b38858461322a565b93509050612b4581613bef565b6060850152612b54858461322a565b93509050612b6181613bef565b6080850152612b708584613c4b565b60a08601919091529250612b84858461382b565b60079190910b60c08601529250612b9b858461382b565b60079190910b60e086015292506060612bb4868561322a565b94509050612bc1816133e3565b6101008601526060612bd3878661322a565b95509050612be0816133e3565b6101208701526060612bf2888761322a565b96509050612bff816133e3565b61014088015250949695505050505050565b604080518082019091526060815260006020820152612c31602083615579565b15612c5957612c41602083615579565b612c4c90602061559b565b612c569083615501565b91505b602080840183905260405180855260008152908184010181811015612c7d57600080fd5b604052509192915050565b81516108379060e08317613de6565b604080518082019091526060815260006020820152600080612cb984826137af565b9250905060028114612ccd57612ccd615563565b612cd7848361322a565b9084529150612ce68483613abd565b506001600160401b03166020840152509092915050565b60606000612d0e8360000151612f0d565b90506000612d1b82611fd4565b84519091506129d1908290612fa1565b6040805180820190915260608152600060208201525b6701ffffffffffffff600783901c1691607f166000839003612d6e57612d678282613de6565b5050919050565b612d7b8260808317613de6565b5050612d41565b805151606090600090612d96906001615501565b6001600160401b03811115612dad57612dad614980565b6040519080825280601f01601f191660200182016040528015612dd7576020820181803683370190505b509050826020015115156001151514612df1576000612df7565b600160f81b5b81600081518110612e0a57612e0a614f51565b60200101906001600160f81b031916908160001a905350600160005b845151811015612e8d578451805182908110612e4457612e44614f51565b602001015160f81c60f81b838381518110612e6157612e61614f51565b60200101906001600160f81b031916908160001a90535081612e82816155ae565b925050600101612e26565b50909392505050565b600060178211612ea857506001919050565b60ff8211612eb857506002919050565b61ffff8211612ec957506003919050565b63ffffffff8211612edc57506005919050565b506009919050565b60008151612ef26002612e96565b61064b9190615501565b6000612f086001612e96565b905090565b60008151612ef28351612e96565b600081600781900b8213612f3b5761066e816001600160401b0316612e96565b61066e612f4a826000196155c7565b6001600160401b0316612e96565b50919050565b8151612f6b9060d8613de6565b508151612f7990602a613de6565b5061200c81604051602001612f8e91906155f6565b60408051601f1981840301815291905283905b61298a8260028351613675565b8060200151612fc457805161200c908390612fa1565b805161200c90839061297d565b61200c8282613e4f565b613001604051806060016040528060608152602001600015158152602001600081525090565b6020840184516000604051600060208406146001811461303357601f841660209081038086018452830101925061303d565b6020820192508382525b50600060208201528282848660046101c2fa5060208151018101604052805193505b6020841461308b576020810151156001811461307b575061308b565b50601f199093019260200161305f565b928352505081526020810183905281156130a557816130b0565b80516130b090613e7d565b60408201529392505050565b4781811015613101576040517f8f0f42060000000000000000000000000000000000000000000000000000000081526004810182905260248101839052604401610592565b823f15158061313c576040517f64d954b000000000000000000000000000000000000000000000000000000000815260040160405180910390fd5b50505050565b6000606060008060008580602001905181019061315f919061561c565b919450925090506001600160401b0382166131995780511561319457604051630e74990760e01b815260040160405180910390fd5b61321e565b6001600160401b038216605114806131ba57506001600160401b0382166071145b156131e157805160000361319457604051630e74990760e01b815260040160405180910390fd5b6040517ff1f6bced0000000000000000000000000000000000000000000000000000000081526001600160401b0383166004820152602401610592565b91959194509092505050565b6060600080600061323b8686613eb5565b96509092506001600160401b0316905060ff821660061480613260575060ff82166002145b6132d25760405162461bcd60e51b815260206004820152602e60248201527f696e76616c6964206d616a20286578706563746564204d616a546167206f722060448201527f4d616a42797465537472696e67290000000000000000000000000000000000006064820152608401610592565b60051960ff83160161330b576132e88686613eb5565b96509092506001600160401b0316905060ff821660021461330b5761330b615563565b60006133178287615501565b90506000826001600160401b0381111561333357613333614980565b6040519080825280601f01601f19166020018201604052801561335d576020820181803683370190505b5090506000875b838110156133c75789818151811061337e5761337e614f51565b602001015160f81c60f81b83838151811061339b5761339b614f51565b60200101906001600160f81b031916908160001a905350816133bc816155ae565b925050600101613364565b50816133d3858a615501565b9650965050505050509250929050565b604080518082019091526060815260006020820152815160000361342c575050604080516080810182526001918101918252600060608201819052918152602081019190915290565b60006001835161343c919061559b565b6001600160401b0381111561345357613453614980565b6040519080825280601f01601f19166020018201604052801561347d576020820181803683370190505b50905060008360008151811061349557613495614f51565b01602001516001600160f81b031916600160f81b036134b2575060015b60015b845181101561351a578481815181106134d0576134d0614f51565b01602001516001600160f81b031916836134eb60018461559b565b815181106134fb576134fb614f51565b60200101906001600160f81b031916908160001a9053506001016134b5565b50604080518082019091529182521515602082015292915050565b6000600182156135ae5784602001518015613551575083602001515b1561355f57506000196135ae565b60208501511580156135775750602084015115156001145b1561358657600191505061066e565b60208501511515600114801561359e57506020840151155b156135ae5760001991505061066e565b8360400151856040015111156135c557905061066e565b8460400151846040015111156135e9576135e1816000196156b1565b91505061066e565b84518051855160209283019201906000908190815b8181101561365d5780860151935080850151925082841115613629578697505050505050505061066e565b8383111561364b5761363d876000196156b1565b97505050505050505061066e565b613656602082615501565b90506135fe565b5060009a9950505050505050505050565b6108378383835b6017816001600160401b03161161369b57825161313c9060e0600585901b168317613de6565b60ff816001600160401b0316116136db5782516136c3906018611fe0600586901b1617613de6565b50825161313c906001600160401b03831660016140b8565b61ffff816001600160401b03161161371c578251613704906019611fe0600586901b1617613de6565b50825161313c906001600160401b03831660026140b8565b63ffffffff816001600160401b03161161375f57825161374790601a611fe0600586901b1617613de6565b50825161313c906001600160401b03831660046140b8565b825161377690601b611fe0600586901b1617613de6565b50825161313c906001600160401b03831660086140b8565b60408051808201909152606081526000602082015261066e8383845161413d565b6000806000806137bf8686613eb5565b96509092506001600160401b0316905060ff82166004146138225760405162461bcd60e51b815260206004820152601f60248201527f696e76616c6964206d616a20286578706563746564204d616a417272617929006044820152606401610592565b95939450505050565b60008080613839858561420e565b90969095509350505050565b604080516020810190915260608152600080806138628686613eb5565b96509092506001600160401b0316905060ff82166006146138eb5760405162461bcd60e51b815260206004820152602860248201527f6578706563746564206d616a6f72207479706520746167207768656e2070617260448201527f73696e67206369640000000000000000000000000000000000000000000000006064820152608401610592565b602a811461393b5760405162461bcd60e51b815260206004820181905260248201527f657870656374656420746167203432207768656e2070617273696e67206369646044820152606401610592565b6060613947878761322a565b80975081925050508060008151811061396257613962614f51565b01602001516001600160f81b031916156139e45760405162461bcd60e51b815260206004820152602c60248201527f6578706563746564206669727374206279746520746f2062652030207768656e60448201527f2070617273696e672063696400000000000000000000000000000000000000006064820152608401610592565b60408051602081019091526060815260018251613a01919061559b565b6001600160401b03811115613a1857613a18614980565b6040519080825280601f01601f191660200182016040528015613a42576020820181803683370190505b50815260015b8251811015613ab157828181518110613a6357613a63614f51565b016020015182516001600160f81b031990911690613a8260018461559b565b81518110613a9257613a92614f51565b60200101906001600160f81b031916908160001a905350600101613a48565b50979596505050505050565b600080600080613acd8686613eb5565b96509092506001600160401b0316905060ff8216156138225760405162461bcd60e51b815260206004820152602560248201527f696e76616c6964206d616a20286578706563746564204d616a556e7369676e6560448201527f64496e74290000000000000000000000000000000000000000000000000000006064820152608401610592565b600080600080613b648686613eb5565b96509092506001600160401b0316905060ff8216600714613bc75760405162461bcd60e51b815260206004820152601f60248201527f696e76616c6964206d616a20286578706563746564204d616a4f7468657229006044820152606401610592565b6015811480613bd65750601481145b613be257613be2615563565b6014141595939450505050565b6040805160208101909152606081526040805160208101909152828152613c15816142b3565b61064b576040517fe6c4247b00000000000000000000000000000000000000000000000000000000815260040160405180910390fd5b6040805180820190915260608152600060208201526000806000613c6f8686613eb5565b96509092506001600160401b0316905060ff821660021480613c94575060ff82166003145b613d065760405162461bcd60e51b815260206004820152603560248201527f696e76616c6964206d616a20286578706563746564204d616a4279746553747260448201527f696e67206f72204d616a54657874537472696e672900000000000000000000006064820152608401610592565b6000613d128287615501565b90506000826001600160401b03811115613d2e57613d2e614980565b6040519080825280601f01601f191660200182016040528015613d58576020820181803683370190505b5090506000875b83811015613dc257898181518110613d7957613d79614f51565b602001015160f81c60f81b838381518110613d9657613d96614f51565b60200101906001600160f81b031916908160001a90535081613db7816155ae565b925050600101613d5f565b506040805180820190915282815260ff861660031460208201526133d3858a615501565b6040805180820190915260608152600060208201528251516000613e0b826001615501565b905084602001518210613e2c57613e2c85613e278360026156e1565b614444565b8451602083820101858153508051821115613e45578181525b5093949350505050565b60008160070b12613e665761200c82600083613675565b61200c826001613e78846000196155c7565b613675565b6000613e888261445b565b15613e9557506000919050565b6020820151613ea3816144a4565b9251601f190160080290920192915050565b600080600080613ec586866146a5565b9050613ed2600186615501565b94506007600582901c16601f8216601c8110613f565760405162461bcd60e51b815260206004820152602560248201527f63616e6e6f742068616e646c652068656164657273207769746820657874726160448201527f203e2032370000000000000000000000000000000000000000000000000000006064820152608401610592565b60188160ff161015613f745790945060ff1692508491506140b19050565b8060ff16601803614001576000613f8b89896146a5565b9050613f98600189615501565b975060188160ff161015613fee5760405162461bcd60e51b815260206004820152600c60248201527f696e76616c69642063626f7200000000000000000000000000000000000000006044820152606401610592565b9195505060ff1692508491506140b19050565b8060ff1660190361403b576000614018898961471b565b9050614025600289615501565b97509195505061ffff1692508491506140b19050565b8060ff16601a03614077576000614052898961477b565b905061405f600489615501565b97509195505063ffffffff1692508491506140b19050565b8060ff16601b1461408a5761408a615563565b600061409689896147db565b90506140a3600889615501565b975091955090935085925050505b9250925092565b60408051808201909152606081526000602082015283515160006140dc8285615501565b905085602001518111156140f9576140f986613e278360026156e1565b60006001614109866101006157dc565b614113919061559b565b90508651828101878319825116178152508051831115614131578281525b50959695505050505050565b604080518082019091526060815260006020820152825182111561416057600080fd5b835151600061416f8483615501565b9050856020015181111561418c5761418c86613e278360026156e1565b8551805183820160200191600091808511156141a6578482525b505050602086015b602086106141e657805182526141c5602083615501565b91506141d2602082615501565b90506141df60208761559b565b95506141ae565b51815160001960208890036101000a0190811690199190911617905250849150509392505050565b60008060008061421e8686613eb5565b96509092506001600160401b0316905060ff821660011480614241575060ff8216155b6138225760405162461bcd60e51b815260206004820152603560248201527f696e76616c6964206d616a20286578706563746564204d616a5369676e65644960448201527f6e74206f72204d616a556e7369676e6564496e742900000000000000000000006064820152608401610592565b80518051600091829182906142ca576142ca614f51565b01602001516001600160f81b031916036142f557815151600110801561064b5750505151600b101590565b81518051600160f81b919060009061430f5761430f614f51565b01602001516001600160f81b031916148061436c5750815180517f0200000000000000000000000000000000000000000000000000000000000000919060009061435b5761435b614f51565b01602001516001600160f81b031916145b1561437a5750515160151490565b815180517f030000000000000000000000000000000000000000000000000000000000000091906000906143b0576143b0614f51565b01602001516001600160f81b031916036143cd5750515160311490565b81518051600160fa1b91906000906143e7576143e7614f51565b01602001516001600160f81b03191614801561442b575081518051600560f91b9190600190811061441a5761441a614f51565b01602001516001600160f81b031916145b156144395750515160161490565b505151610100101590565b81516144508383612c11565b5061313c838261378e565b60008060208301815b84518110156144995781519250821561448257506000949350505050565b6020918201916144929082615501565b9050614464565b506001949350505050565b600081156001811461469c57604080517ff8f9cbfae6cc78fbefe7cdc3a1793dfcf4f0e8bbd8cec470b6a28a7a5a3e1efd81527ff5ecf1b3e9debc68e1d9cfabc5997135bfb7a7a3938b7b606b5b4b3f2f1f0ffe60208201527ff6e4ed9ff2d6b458eadcdf97bd91692de2d4da8fd2d0ac50c6ae9a8272523616818301527fc8c0b887b0a8a4489c948c7f847c6125746c645c544c444038302820181008ff60608201527ff7cae577eec2a03cf3bad76fb589591debb2dd67e0aa9834bea6925f6a4a2e0e60808201527fe39ed557db96902cd38ed14fad815115c786af479b7e8324736353433727170760a08201527fc976c13bb96e881cb166a933a55e490d9d56952b8d4e801485467d236242260660c08201527f753a6d1b65325d0c552a4d1345224105391a310b29122104190a11030902010060e0820152610100818101909252600160f81b7e818283848586878898a8b8c8d8e8f929395969799a9b9d9e9faaeb6bedeeff700100000000000000000000000000000000600160401b640100000000620100006010600460026000198e0190810481179182049091179182049091178981041791820490911791820490911791820490911791820490911760010191820283900460ff03909301519096600160ff1b81119094029190040193508116614696576001830192505b50612f58565b50600092915050565b60006146b2826001615501565b835110156146f95760405162461bcd60e51b8152602060048201526014602482015273736c6963696e67206f7574206f662072616e676560601b6044820152606401610592565b82828151811061470b5761470b614f51565b016020015160f81c905092915050565b6000614728826002615501565b8351101561476f5760405162461bcd60e51b8152602060048201526014602482015273736c6963696e67206f7574206f662072616e676560601b6044820152606401610592565b50016020015160f01c90565b6000614788826004615501565b835110156147cf5760405162461bcd60e51b8152602060048201526014602482015273736c6963696e67206f7574206f662072616e676560601b6044820152606401610592565b50016020015160e01c90565b60006147e8826008615501565b8351101561482f5760405162461bcd60e51b8152602060048201526014602482015273736c6963696e67206f7574206f662072616e676560601b6044820152606401610592565b50016020015160c01c90565b905290565b604080516101808101909152606061016082019081528190815260200160006001600160401b0316815260200160001515815260200161488c6040518060200160405280606081525090565b81526020016148a76040518060200160405280606081525090565b81526020016148cb6040518060400160405280606081526020016000151581525090565b8152602001600060070b8152602001600060070b81526020016149036040518060400160405280606081526020016000151581525090565b81526020016149276040518060400160405280606081526020016000151581525090565b815260200161483b6040518060400160405280606081526020016000151581525090565b6040518060400160405280614973604051806040016040528060608152602001600081525090565b8152602001600081525090565b634e487b7160e01b600052604160045260246000fd5b604051601f8201601f191681016001600160401b03811182821017156149be576149be614980565b604052919050565b60006001600160401b038211156149df576149df614980565b50601f01601f191660200190565b600082601f8301126149fe57600080fd5b8135614a11614a0c826149c6565b614996565b818152846020838601011115614a2657600080fd5b816020850160208301376000918101602001919091529392505050565b600060208284031215614a5557600080fd5b81356001600160401b03811115614a6b57600080fd5b6114d4848285016149ed565b60008060408385031215614a8a57600080fd5b82356001600160a01b0381168114614aa157600080fd5b946020939093013593505050565b600060208284031215614ac157600080fd5b5035919050565b60005b83811015614ae3578181015183820152602001614acb565b50506000910152565b60008151808452614b04816020860160208601614ac8565b601f01601f19169290920160200192915050565b60208152600061066e6020830184614aec565b60008060208385031215614b3e57600080fd5b82356001600160401b0380821115614b5557600080fd5b818501915085601f830112614b6957600080fd5b813581811115614b7857600080fd5b866020828501011115614b8a57600080fd5b60209290920196919550909350505050565b602081526000825160406020840152614bb86060840182614aec565b90506020840151151560408401528091505092915050565b6001600160401b0381168114614be557600080fd5b50565b600080600060608486031215614bfd57600080fd5b8335614c0881614bd0565b92506020840135614c1881614bd0565b915060408401356001600160401b03811115614c3357600080fd5b614c3f868287016149ed565b9150509250925092565b63ffffffff841681526001600160401b03831660208201526060604082015260006127956060830184614aec565b6000815160808452614c8c6080850182614aec565b90506001600160401b0360208401511660208501526040830151151560408501526060830151151560608501528091505092915050565b6020815260008251610160806020850152614ce2610180850183614aec565b91506020850151614cfe60408601826001600160401b03169052565b5060408501518015156060860152506060850151601f1980868503016080870152614d298483614aec565b935060808701519150614d4160a087018360070b9052565b60a08701519150614d5760c087018360070b9052565b60c087015160e08781019190915287015161010080880191909152870151610120808801919091528701519150610140614d9b818801846001600160401b03169052565b870151868503909101838701529050614db48382614c77565b9695505050505050565b634e487b7160e01b600052602160045260246000fd5b6020810160058310614df657634e487b7160e01b600052602160045260246000fd5b91905290565b6000610160808352614e108184018f614aec565b90506001600160401b03808e1660208501528c151560408501528382036060850152614e3c828d614aec565b91508a60070b60808501528960070b60a08501528860c08501528760e08501528661010085015280861661012085015250828103610140840152614e808185614c77565b9e9d5050505050505050505050505050565b600060208284031215614ea457600080fd5b81356001600160401b03811115614eba57600080fd5b8201610160818503121561066e57600080fd5b604081526000614ee06040830185614aec565b905082151560208301529392505050565b60008251614f03818460208701614ac8565b9190910192915050565b8183823760009101908152919050565b600181811c90821680614f3157607f821691505b602082108103612f5857634e487b7160e01b600052602260045260246000fd5b634e487b7160e01b600052603260045260246000fd5b6000808335601e19843603018112614f7e57600080fd5b8301803591506001600160401b03821115614f9857600080fd5b60200191503681900382131561242757600080fd5b601f821115610837576000816000526020600020601f850160051c81016020861015614fd65750805b601f850160051c820191505b81811015614ff557828155600101614fe2565b505050505050565b6001600160401b0383111561501457615014614980565b615028836150228354614f1d565b83614fad565b6000601f84116001811461505c57600085156150445750838201355b600019600387901b1c1916600186901b1783556150b6565b600083815260209020601f19861690835b8281101561508d578685013582556020948501946001909201910161506d565b50868210156150aa5760001960f88860031b161c19848701351681555b505060018560011b0183555b5050505050565b6000813561064b81614bd0565b8015158114614be557600080fd5b6000813561064b816150ca565b600081358060070b811461064b57600080fd5b60008235607e19833603018112614f0357600080fd5b6151188283614f67565b6001600160401b0381111561512f5761512f614980565b6151438161513d8554614f1d565b85614fad565b6000601f821160018114615177576000831561515f5750838201355b600019600385901b1c1916600184901b1785556151d1565b600085815260209020601f19841690835b828110156151a85786850135825560209485019460019092019101615188565b50848210156151c55760001960f88660031b161c19848701351681555b505060018360011b0185555b50505050600181016152066151e8602085016150bd565b825467ffffffffffffffff19166001600160401b0391909116178255565b61523d615215604085016150d8565b82805468ff0000000000000000191691151560401b68ff000000000000000016919091179055565b61083761524c606085016150d8565b82805469ff000000000000000000191691151560481b69ff00000000000000000016919091179055565b6152808283614f67565b61528b818385614ffd565b5050600181016152a06151e8602085016150bd565b6152af615215604085016150d8565b506152bd6060830183614f67565b6152cb818360028601614ffd565b5050600381016152e06151e8608085016150e5565b6153336152ef60a085016150e5565b8280548260401b6fffffffffffffffff0000000000000000167fffffffffffffffffffffffffffffffff0000000000000000ffffffffffffffff8216178255505050565b5060c0820135600482015560e08201356005820155610100820135600682015561538461536361012084016150bd565b600783016001600160401b0382166001600160401b03198254161781555050565b61200c6153956101408401846150f8565b6008830161510e565b6000602082840312156153b057600080fd5b813561066e816150ca565b6000602082840312156153cd57600080fd5b813561066e81614bd0565b80516020808301519190811015612f585760001960209190910360031b1b16919050565b81516001600160401b0381111561541557615415614980565b615429816154238454614f1d565b84614fad565b602080601f83116001811461545e57600084156154465750858301515b600019600386901b1c1916600185901b178555614ff5565b600085815260208120601f198616915b8281101561548d5788860151825594840194600190910190840161546e565b50858210156154ab5787850151600019600388901b60f8161c191681555b5050505050600190811b01905550565b6001600160f81b031983168152600082516154dd816001850160208701614ac8565b919091016001019392505050565b634e487b7160e01b600052601160045260246000fd5b8082018082111561064b5761064b6154eb565b60006001600160401b0380891683528760208401528087166040840152808616606084015260c0608084015261554d60c0840186614aec565b915080841660a084015250979650505050505050565b634e487b7160e01b600052600160045260246000fd5b60008261559657634e487b7160e01b600052601260045260246000fd5b500690565b8181038181111561064b5761064b6154eb565b6000600182016155c0576155c06154eb565b5060010190565b600782810b9082900b03677fffffffffffffff198112677fffffffffffffff8213171561064b5761064b6154eb565b600081526000825161560f816001850160208701614ac8565b9190910160010192915050565b60008060006060848603121561563157600080fd5b83519250602084015161564381614bd0565b60408501519092506001600160401b0381111561565f57600080fd5b8401601f8101861361567057600080fd5b805161567e614a0c826149c6565b81815287602083850101111561569357600080fd5b6156a4826020830160208601614ac8565b8093505050509250925092565b80820260008212600160ff1b841416156156cd576156cd6154eb565b818105831482151761064b5761064b6154eb565b808202811582820484141761064b5761064b6154eb565b600181815b80851115615733578160001904821115615719576157196154eb565b8085161561572657918102915b93841c93908002906156fd565b509250929050565b60008261574a5750600161064b565b816157575750600061064b565b816001811461576d576002811461577757615793565b600191505061064b565b60ff841115615788576157886154eb565b50506001821b61064b565b5060208310610133831016604e8410600b84101617156157b6575081810a61064b565b6157c083836156f8565b80600019048211156157d4576157d46154eb565b029392505050565b600061066e838361573b56fea2646970667358221220383da259526109107bbf185d5d43610d1cead323eed71176984004ed9791038f64736f6c63430008170033",
  "devdoc": {
    "kind": "dev",
    "methods": {},
    "version": 1
  },
  "userdoc": {
    "errors": {
      "ActorNotFound()": [
        {
          "notice": "the actor is not found"
        }
      ],
      "FailToCallActor()": [
        {
          "notice": "an error happened trying to call the actor"
        }
      ],
      "InvalidCodec(uint64)": [
        {
          "notice": "the codec received is not valid"
        }
      ],
      "InvalidResponseLength()": [
        {
          "notice": "the response received is not correct. In some case no response is expected and we received one, or a response was indeed expected and we received none."
        }
      ],
      "NotEnoughBalance(uint256,uint256)": [
        {
          "notice": "the smart contract has no enough balance to transfer"
        }
      ]
    },
    "kind": "user",
    "methods": {},
    "version": 1
  },
  "storageLayout": {
    "storage": [
      {
        "astId": 592,
        "contract": "contracts/DealClient.sol:DealClient",
        "label": "dealRequestIdx",
        "offset": 0,
        "slot": "0",
        "type": "t_mapping(t_bytes32,t_struct(RequestIdx)461_storage)"
      },
      {
        "astId": 596,
        "contract": "contracts/DealClient.sol:DealClient",
        "label": "dealRequests",
        "offset": 0,
        "slot": "1",
        "type": "t_array(t_struct(DealRequest)490_storage)dyn_storage"
      },
      {
        "astId": 601,
        "contract": "contracts/DealClient.sol:DealClient",
        "label": "pieceRequests",
        "offset": 0,
        "slot": "2",
        "type": "t_mapping(t_bytes_memory_ptr,t_struct(RequestId)456_storage)"
      },
      {
        "astId": 606,
        "contract": "contracts/DealClient.sol:DealClient",
        "label": "pieceProviders",
        "offset": 0,
        "slot": "3",
        "type": "t_mapping(t_bytes_memory_ptr,t_struct(ProviderSet)466_storage)"
      },
      {
        "astId": 610,
        "contract": "contracts/DealClient.sol:DealClient",
        "label": "pieceDeals",
        "offset": 0,
        "slot": "4",
        "type": "t_mapping(t_bytes_memory_ptr,t_uint64)"
      },
      {
        "astId": 615,
        "contract": "contracts/DealClient.sol:DealClient",
        "label": "pieceStatus",
        "offset": 0,
        "slot": "5",
        "type": "t_mapping(t_bytes_memory_ptr,t_enum(Status)587)"
      },
      {
        "astId": 631,
        "contract": "contracts/DealClient.sol:DealClient",
        "label": "owner",
        "offset": 0,
        "slot": "6",
        "type": "t_address"
      }
    ],
    "types": {
      "t_address": {
        "encoding": "inplace",
        "label": "address",
        "numberOfBytes": "20"
      },
      "t_array(t_struct(DealRequest)490_storage)dyn_storage": {
        "base": "t_struct(DealRequest)490_storage",
        "encoding": "dynamic_array",
        "label": "struct DealRequest[]",
        "numberOfBytes": "32"
      },
      "t_bool": {
        "encoding": "inplace",
        "label": "bool",
        "numberOfBytes": "1"
      },
      "t_bytes32": {
        "encoding": "inplace",
        "label": "bytes32",
        "numberOfBytes": "32"
      },
      "t_bytes_memory_ptr": {
        "encoding": "bytes",
        "label": "bytes",
        "numberOfBytes": "32"
      },
      "t_bytes_storage": {
        "encoding": "bytes",
        "label": "bytes",
        "numberOfBytes": "32"
      },
      "t_enum(Status)587": {
        "encoding": "inplace",
        "label": "enum DealClient.Status",
        "numberOfBytes": "1"
      },
      "t_int64": {
        "encoding": "inplace",
        "label": "int64",
        "numberOfBytes": "8"
      },
      "t_mapping(t_bytes32,t_struct(RequestIdx)461_storage)": {
        "encoding": "mapping",
        "key": "t_bytes32",
        "label": "mapping(bytes32 => struct RequestIdx)",
        "numberOfBytes": "32",
        "value": "t_struct(RequestIdx)461_storage"
      },
      "t_mapping(t_bytes_memory_ptr,t_enum(Status)587)": {
        "encoding": "mapping",
        "key": "t_bytes_memory_ptr",
        "label": "mapping(bytes => enum DealClient.Status)",
        "numberOfBytes": "32",
        "value": "t_enum(Status)587"
      },
      "t_mapping(t_bytes_memory_ptr,t_struct(ProviderSet)466_storage)": {
        "encoding": "mapping",
        "key": "t_bytes_memory_ptr",
        "label": "mapping(bytes => struct ProviderSet)",
        "numberOfBytes": "32",
        "value": "t_struct(ProviderSet)466_storage"
      },
      "t_mapping(t_bytes_memory_ptr,t_struct(RequestId)456_storage)": {
        "encoding": "mapping",
        "key": "t_bytes_memory_ptr",
        "label": "mapping(bytes => struct RequestId)",
        "numberOfBytes": "32",
        "value": "t_struct(RequestId)456_storage"
      },
      "t_mapping(t_bytes_memory_ptr,t_uint64)": {
        "encoding": "mapping",
        "key": "t_bytes_memory_ptr",
        "label": "mapping(bytes => uint64)",
        "numberOfBytes": "32",
        "value": "t_uint64"
      },
      "t_string_storage": {
        "encoding": "bytes",
        "label": "string",
        "numberOfBytes": "32"
      },
      "t_struct(DealRequest)490_storage": {
        "encoding": "inplace",
        "label": "struct DealRequest",
        "members": [
          {
            "astId": 468,
            "contract": "contracts/DealClient.sol:DealClient",
            "label": "piece_cid",
            "offset": 0,
            "slot": "0",
            "type": "t_bytes_storage"
          },
          {
            "astId": 470,
            "contract": "contracts/DealClient.sol:DealClient",
            "label": "piece_size",
            "offset": 0,
            "slot": "1",
            "type": "t_uint64"
          },
          {
            "astId": 472,
            "contract": "contracts/DealClient.sol:DealClient",
            "label": "verified_deal",
            "offset": 8,
            "slot": "1",
            "type": "t_bool"
          },
          {
            "astId": 474,
            "contract": "contracts/DealClient.sol:DealClient",
            "label": "label",
            "offset": 0,
            "slot": "2",
            "type": "t_string_storage"
          },
          {
            "astId": 476,
            "contract": "contracts/DealClient.sol:DealClient",
            "label": "start_epoch",
            "offset": 0,
            "slot": "3",
            "type": "t_int64"
          },
          {
            "astId": 478,
            "contract": "contracts/DealClient.sol:DealClient",
            "label": "end_epoch",
            "offset": 8,
            "slot": "3",
            "type": "t_int64"
          },
          {
            "astId": 480,
            "contract": "contracts/DealClient.sol:DealClient",
            "label": "storage_price_per_epoch",
            "offset": 0,
            "slot": "4",
            "type": "t_uint256"
          },
          {
            "astId": 482,
            "contract": "contracts/DealClient.sol:DealClient",
            "label": "provider_collateral",
            "offset": 0,
            "slot": "5",
            "type": "t_uint256"
          },
          {
            "astId": 484,
            "contract": "contracts/DealClient.sol:DealClient",
            "label": "client_collateral",
            "offset": 0,
            "slot": "6",
            "type": "t_uint256"
          },
          {
            "astId": 486,
            "contract": "contracts/DealClient.sol:DealClient",
            "label": "extra_params_version",
            "offset": 0,
            "slot": "7",
            "type": "t_uint64"
          },
          {
            "astId": 489,
            "contract": "contracts/DealClient.sol:DealClient",
            "label": "extra_params",
            "offset": 0,
            "slot": "8",
            "type": "t_struct(ExtraParamsV1)499_storage"
          }
        ],
        "numberOfBytes": "320"
      },
      "t_struct(ExtraParamsV1)499_storage": {
        "encoding": "inplace",
        "label": "struct ExtraParamsV1",
        "members": [
          {
            "astId": 492,
            "contract": "contracts/DealClient.sol:DealClient",
            "label": "location_ref",
            "offset": 0,
            "slot": "0",
            "type": "t_string_storage"
          },
          {
            "astId": 494,
            "contract": "contracts/DealClient.sol:DealClient",
            "label": "car_size",
            "offset": 0,
            "slot": "1",
            "type": "t_uint64"
          },
          {
            "astId": 496,
            "contract": "contracts/DealClient.sol:DealClient",
            "label": "skip_ipni_announce",
            "offset": 8,
            "slot": "1",
            "type": "t_bool"
          },
          {
            "astId": 498,
            "contract": "contracts/DealClient.sol:DealClient",
            "label": "remove_unsealed_copy",
            "offset": 9,
            "slot": "1",
            "type": "t_bool"
          }
        ],
        "numberOfBytes": "64"
      },
      "t_struct(ProviderSet)466_storage": {
        "encoding": "inplace",
        "label": "struct ProviderSet",
        "members": [
          {
            "astId": 463,
            "contract": "contracts/DealClient.sol:DealClient",
            "label": "provider",
            "offset": 0,
            "slot": "0",
            "type": "t_bytes_storage"
          },
          {
            "astId": 465,
            "contract": "contracts/DealClient.sol:DealClient",
            "label": "valid",
            "offset": 0,
            "slot": "1",
            "type": "t_bool"
          }
        ],
        "numberOfBytes": "64"
      },
      "t_struct(RequestId)456_storage": {
        "encoding": "inplace",
        "label": "struct RequestId",
        "members": [
          {
            "astId": 453,
            "contract": "contracts/DealClient.sol:DealClient",
            "label": "requestId",
            "offset": 0,
            "slot": "0",
            "type": "t_bytes32"
          },
          {
            "astId": 455,
            "contract": "contracts/DealClient.sol:DealClient",
            "label": "valid",
            "offset": 0,
            "slot": "1",
            "type": "t_bool"
          }
        ],
        "numberOfBytes": "64"
      },
      "t_struct(RequestIdx)461_storage": {
        "encoding": "inplace",
        "label": "struct RequestIdx",
        "members": [
          {
            "astId": 458,
            "contract": "contracts/DealClient.sol:DealClient",
            "label": "idx",
            "offset": 0,
            "slot": "0",
            "type": "t_uint256"
          },
          {
            "astId": 460,
            "contract": "contracts/DealClient.sol:DealClient",
            "label": "valid",
            "offset": 0,
            "slot": "1",
            "type": "t_bool"
          }
        ],
        "numberOfBytes": "64"
      },
      "t_uint256": {
        "encoding": "inplace",
        "label": "uint256",
        "numberOfBytes": "32"
      },
      "t_uint64": {
        "encoding": "inplace",
        "label": "uint64",
        "numberOfBytes": "8"
      }
    }
  }
}