{
  "address": "0x5C7B25426918E919c74095fdf5766e44619Efc81",
  "abi": [
    {
      "inputs": [
        {
          "internalType": "address",
          "name": "_gateway",
          "type": "address"
        },
        {
          "internalType": "address",
          "name": "_gasReceiver",
          "type": "address"
        }
      ],
      "stateMutability": "nonpayable",
      "type": "constructor"
    },
    {
      "inputs": [],
      "name": "InvalidAddress",
      "type": "error"
    },
    {
      "inputs": [],
      "name": "InvalidAddress",
      "type": "error"
    },
    {
      "inputs": [],
      "name": "NotApprovedByGateway",
      "type": "error"
    },
    {
      "inputs": [
        {
          "internalType": "uint256",
          "name": "value",
          "type": "uint256"
        },
        {
          "internalType": "uint256",
          "name": "length",
          "type": "uint256"
        }
      ],
      "name": "StringsInsufficientHexLength",
      "type": "error"
    },
    {
      "inputs": [],
      "name": "AUTHENTICATE_MESSAGE_METHOD_NUM",
      "outputs": [
        {
          "internalType": "uint64",
          "name": "",
          "type": "uint64"
        }
      ],
      "stateMutability": "view",
      "type": "function"
    },
    {
      "inputs": [],
      "name": "AXELAR_GAS_FEE",
      "outputs": [
        {
          "internalType": "uint256",
          "name": "",
          "type": "uint256"
        }
      ],
      "stateMutability": "view",
      "type": "function"
    },
    {
      "inputs": [],
      "name": "DATACAP_ACTOR_ETH_ADDRESS",
      "outputs": [
        {
          "internalType": "address",
          "name": "",
          "type": "address"
        }
      ],
      "stateMutability": "view",
      "type": "function"
    },
    {
      "inputs": [],
      "name": "DATACAP_RECEIVER_HOOK_METHOD_NUM",
      "outputs": [
        {
          "internalType": "uint64",
          "name": "",
          "type": "uint64"
        }
      ],
      "stateMutability": "view",
      "type": "function"
    },
    {
      "inputs": [],
      "name": "MARKET_ACTOR_ETH_ADDRESS",
      "outputs": [
        {
          "internalType": "address",
          "name": "",
          "type": "address"
        }
      ],
      "stateMutability": "view",
      "type": "function"
    },
    {
      "inputs": [],
      "name": "MARKET_NOTIFY_DEAL_METHOD_NUM",
      "outputs": [
        {
          "internalType": "uint64",
          "name": "",
          "type": "uint64"
        }
      ],
      "stateMutability": "view",
      "type": "function"
    },
    {
      "inputs": [
        {
          "internalType": "bytes",
          "name": "providerAddrData",
          "type": "bytes"
        }
      ],
      "name": "addGasFunds",
      "outputs": [],
      "stateMutability": "payable",
      "type": "function"
    },
    {
      "inputs": [
        {
          "internalType": "uint256",
          "name": "",
          "type": "uint256"
        }
      ],
      "name": "chainIdToDestinationChain",
      "outputs": [
        {
          "internalType": "string",
          "name": "chainName",
          "type": "string"
        },
        {
          "internalType": "address",
          "name": "destinationAddress",
          "type": "address"
        }
      ],
      "stateMutability": "view",
      "type": "function"
    },
    {
      "inputs": [
        {
          "internalType": "bytes",
          "name": "commp",
          "type": "bytes"
        },
        {
          "internalType": "bytes",
          "name": "providerAddrData",
          "type": "bytes"
        },
        {
          "internalType": "uint256",
          "name": "gasFunds",
          "type": "uint256"
        },
        {
          "internalType": "uint256",
          "name": "chainId",
          "type": "uint256"
        }
      ],
      "name": "debug_call",
      "outputs": [],
      "stateMutability": "nonpayable",
      "type": "function"
    },
    {
      "inputs": [
        {
          "internalType": "bytes32",
          "name": "commandId",
          "type": "bytes32"
        },
        {
          "internalType": "string",
          "name": "sourceChain",
          "type": "string"
        },
        {
          "internalType": "string",
          "name": "sourceAddress",
          "type": "string"
        },
        {
          "internalType": "bytes",
          "name": "payload",
          "type": "bytes"
        }
      ],
      "name": "execute",
      "outputs": [],
      "stateMutability": "nonpayable",
      "type": "function"
    },
    {
      "inputs": [],
      "name": "gasService",
      "outputs": [
        {
          "internalType": "contract IAxelarGasService",
          "name": "",
          "type": "address"
        }
      ],
      "stateMutability": "view",
      "type": "function"
    },
    {
      "inputs": [],
      "name": "gateway",
      "outputs": [
        {
          "internalType": "contract IAxelarGateway",
          "name": "",
          "type": "address"
        }
      ],
      "stateMutability": "view",
      "type": "function"
    },
    {
      "inputs": [
        {
          "internalType": "uint64",
          "name": "method",
          "type": "uint64"
        },
        {
          "internalType": "uint64",
          "name": "",
          "type": "uint64"
        },
        {
          "internalType": "bytes",
          "name": "params",
          "type": "bytes"
        }
      ],
      "name": "handle_filecoin_method",
      "outputs": [
        {
          "internalType": "uint32",
          "name": "",
          "type": "uint32"
        },
        {
          "internalType": "uint64",
          "name": "",
          "type": "uint64"
        },
        {
          "internalType": "bytes",
          "name": "",
          "type": "bytes"
        }
      ],
      "stateMutability": "nonpayable",
      "type": "function"
    },
    {
      "inputs": [
        {
          "internalType": "bytes",
          "name": "",
          "type": "bytes"
        }
      ],
      "name": "pieceDeals",
      "outputs": [
        {
          "internalType": "uint64",
          "name": "",
          "type": "uint64"
        }
      ],
      "stateMutability": "view",
      "type": "function"
    },
    {
      "inputs": [
        {
          "internalType": "bytes",
          "name": "",
          "type": "bytes"
        }
      ],
      "name": "pieceStatus",
      "outputs": [
        {
          "internalType": "enum DealClientAxl.Status",
          "name": "",
          "type": "uint8"
        }
      ],
      "stateMutability": "view",
      "type": "function"
    },
    {
      "inputs": [
        {
          "internalType": "bytes",
          "name": "",
          "type": "bytes"
        }
      ],
      "name": "providerGasFunds",
      "outputs": [
        {
          "internalType": "uint256",
          "name": "",
          "type": "uint256"
        }
      ],
      "stateMutability": "view",
      "type": "function"
    },
    {
      "inputs": [
        {
          "internalType": "uint256[]",
          "name": "chainIds",
          "type": "uint256[]"
        },
        {
          "internalType": "string[]",
          "name": "destinationChains",
          "type": "string[]"
        },
        {
          "internalType": "address[]",
          "name": "destinationAddresses",
          "type": "address[]"
        }
      ],
      "name": "setDestinationChains",
      "outputs": [],
      "stateMutability": "nonpayable",
      "type": "function"
    }
  ],
  "transactionHash": "0x830c8c87ed13893a14e9342a29cfbf4c186db50f360982260db8fd1393ae879c",
  "args": [
    "0x999117D44220F33e0441fbAb2A5aDB8FF485c54D",
    "0xbe406f0189a0b4cf3a05c286473d23791dd44cc6"
  ],
  "numDeployments": 1,
  "solcInputHash": "c573c5dc4004690fd25c2465c0c24e37",
  "bytecode": "0x60c06040523480156200001157600080fd5b50604051620031a7380380620031a7833981016040819052620000349162000093565b816001600160a01b0381166200005d5760405163e6c4247b60e01b815260040160405180910390fd5b6001600160a01b039081166080521660a05250620000cb565b80516001600160a01b03811681146200008e57600080fd5b919050565b60008060408385031215620000a757600080fd5b620000b28362000076565b9150620000c26020840162000076565b90509250929050565b60805160a0516130a162000106600039600081816102dd0152610c0e0152600081816101bb015281816106200152610c9801526130a16000f3fe60806040526004361061010d5760003560e01c80634fe61ac5116100a557806386a49a8911610074578063b34ba25211610059578063b34ba25214610389578063be965ce7146103a1578063cc7cc277146103c957600080fd5b806386a49a891461032e578063a6d1b7b81461034157600080fd5b80634fe61ac5146102935780636067f454146102b35780636a22d8cc146102cb578063868e10c4146102ff57600080fd5b806329aa3d2a116100e157806329aa3d2a146101f357806338d6c5e01461021b5780633a5a268814610245578063491606581461027357600080fd5b8062706790146101125780630a0e0c91146101485780630ce9b5651461018a578063116191b6146101ac575b600080fd5b34801561011e57600080fd5b5061012a639d8b067881565b60405167ffffffffffffffff90911681526020015b60405180910390f35b34801561015457600080fd5b5061012a61016336600461271f565b805160208183018101805160008252928201919093012091525467ffffffffffffffff1681565b34801561019657600080fd5b506101aa6101a5366004612796565b610401565b005b3480156101b857600080fd5b507f00000000000000000000000000000000000000000000000000000000000000005b6040516001600160a01b03909116815260200161013f565b3480156101ff57600080fd5b506101db73ff0000000000000000000000000000000000000581565b34801561022757600080fd5b5061023767016345785d8a000081565b60405190815260200161013f565b34801561025157600080fd5b50610265610260366004612814565b610552565b60405161013f92919061287d565b34801561027f57600080fd5b506101aa61028e3660046128a8565b6105ff565b34801561029f57600080fd5b506101aa6102ae366004612991565b6106f5565b3480156102bf57600080fd5b5061012a63f98c996681565b3480156102d757600080fd5b506101db7f000000000000000000000000000000000000000000000000000000000000000081565b34801561030b57600080fd5b5061031f61031a366004612a48565b610961565b60405161013f93929190612aa6565b6101aa61033c366004612ade565b610a4e565b34801561034d57600080fd5b5061037c61035c36600461271f565b805160208183018101805160018252928201919093012091525460ff1681565b60405161013f9190612b2a565b34801561039557600080fd5b5061012a63de180de381565b3480156103ad57600080fd5b506101db73ff0000000000000000000000000000000000000781565b3480156103d557600080fd5b506102376103e436600461271f565b805160208183018101805160028252928201919093012091525481565b6040805160a06020601f89018190040282018101909252608081018781526000928291908a908a908190850183828082843760009201829052509385525050506020820152602a60408201526060016001815250905060008160405160200161046a9190612b52565b604051602081830303815290604052905046830361050457600083815260036020526040902060018101546001600160a01b03169063a69399ed906104ae30610a87565b846040518463ffffffff1660e01b81526004016104cd93929190612bdf565b600060405180830381600087803b1580156104e757600080fd5b505af11580156104fb573d6000803e3d6000fd5b50505050610548565b6105488187878080601f016020809104026020016040519081016040528093929190818152602001838380828437600092019190915250899250889150610aa39050565b5050505050505050565b60036020526000908152604090208054819061056d90612ba5565b80601f016020809104026020016040519081016040528092919081815260200182805461059990612ba5565b80156105e65780601f106105bb576101008083540402835291602001916105e6565b820191906000526020600020905b8154815290600101906020018083116105c957829003601f168201915b505050600190930154919250506001600160a01b031682565b60008282604051610611929190612c96565b604051809103902090506106427f000000000000000000000000000000000000000000000000000000000000000090565b6001600160a01b0316635f6970c38989898989876040518763ffffffff1660e01b815260040161067796959493929190612ccf565b6020604051808303816000875af1158015610696573d6000803e3d6000fd5b505050506040513d601f19601f820116820180604052508101906106ba9190612d10565b6106f0576040517f500c44b400000000000000000000000000000000000000000000000000000000815260040160405180910390fd5b610548565b848314801561070357508281145b61077a5760405162461bcd60e51b815260206004820152602660248201527f496e70757420617272617973206d7573742068617665207468652073616d652060448201527f6c656e677468000000000000000000000000000000000000000000000000000060648201526084015b60405180910390fd5b60005b8581101561095857600060038189898581811061079c5761079c612d32565b60209081029290920135835250810191909152604001600020600101546001600160a01b0316146108355760405162461bcd60e51b815260206004820152603560248201527f44657374696e6174696f6e20636861696e7320616c726561647920636f6e666960448201527f677572656420666f722074686520636861696e496400000000000000000000006064820152608401610771565b604051806040016040528086868481811061085257610852612d32565b90506020028101906108649190612d48565b8080601f0160208091040260200160405190810160405280939291908181526020018383808284376000920191909152505050908252506020018484848181106108b0576108b0612d32565b90506020020160208101906108c59190612d8f565b6001600160a01b03169052600360008989858181106108e6576108e6612d32565b90506020020135815260200190815260200160002060008201518160000190816109109190612e08565b5060209190910151600191820180547fffffffffffffffffffffffff0000000000000000000000000000000000000000166001600160a01b039092169190911790550161077d565b50505050505050565b60008060608082639d8b06771967ffffffffffffffff8916016109ac57600061098a6001610d24565b9050610997816001610d45565b6109a081610d60565b92506051915050610a3e565b63f98c99651967ffffffffffffffff8916016109d0576109cb86610dbc565b610a3e565b60405162461bcd60e51b815260206004820152603260248201527f7468652066696c65636f696e206d6574686f642074686174207761732063616c60448201527f6c6564206973206e6f742068616e646c656400000000000000000000000000006064820152608401610771565b6000989097509095509350505050565b3460028383604051610a61929190612c96565b90815260200160405180910390206000828254610a7e9190612ede565b90915550505050565b6060610a9d826001600160a01b0316601461103f565b92915050565b600082905082600285604051610ab99190612ef1565b90815260200160405180910390205410610b065782600285604051610ade9190612ef1565b90815260200160405180910390206000828254610afb9190612f0d565b90915550610b4a9050565b600284604051610b169190612ef1565b90815260200160405180910390205490506000600285604051610b399190612ef1565b908152604051908190036020019020555b60008281526003602052604081208054610b6390612ba5565b80601f0160208091040260200160405190810160405280929190818152602001828054610b8f90612ba5565b8015610bdc5780601f10610bb157610100808354040283529160200191610bdc565b820191906000526020600020905b815481529060010190602001808311610bbf57829003601f168201915b50505060008681526003602052604081206001015493945092610c0a92506001600160a01b03169050610a87565b90507f00000000000000000000000000000000000000000000000000000000000000006001600160a01b0316630c93e3bb843085858c336040518763ffffffff1660e01b8152600401610c61959493929190612f20565b6000604051808303818588803b158015610c7a57600080fd5b505af1158015610c8e573d6000803e3d6000fd5b5050505050610cba7f000000000000000000000000000000000000000000000000000000000000000090565b6001600160a01b0316631c92115f83838a6040518463ffffffff1660e01b8152600401610ce993929190612f7f565b600060405180830381600087803b158015610d0357600080fd5b505af1158015610d17573d6000803e3d6000fd5b5050505050505050505050565b610d2c612536565b8051610d38908361121d565b5060006020820152919050565b610d5c8282610d55576014611294565b6015611294565b5050565b60608160200151600014610db65760405162461bcd60e51b815260206004820152600c60248201527f496e76616c69642043424f5200000000000000000000000000000000000000006044820152606401610771565b50515190565b3373ff0000000000000000000000000000000000000514610e455760405162461bcd60e51b815260206004820152602760248201527f6d73672e73656e646572206e6565647320746f206265206d61726b657420616360448201527f746f7220663035000000000000000000000000000000000000000000000000006064820152608401610771565b6000610e50826112a8565b90506000610e61826000015161130f565b60208301518151516040519293509091600091610e7d91612ef1565b908152604051908190036020018120805467ffffffffffffffff9390931667ffffffffffffffff19909316929092179091558151516001918291610ec091612ef1565b908152604051908190036020019020805460ff19166001836003811115610ee957610ee9612b14565b021790555060008160c001518260e00151610f049190612fa4565b905060008260a0015160000151806020019051810190610f249190612fd3565b90506000604051806080016040528085600001516000015181526020018460070b8152602001866020015167ffffffffffffffff16815260200160016003811115610f7157610f71612b14565b8152509050600081604051602001610f899190612b52565b604051602081830303815290604052905046830361102357600083815260036020526040902060018101546001600160a01b03169063a69399ed90610fcd30610a87565b846040518463ffffffff1660e01b8152600401610fec93929190612bdf565b600060405180830381600087803b15801561100657600080fd5b505af115801561101a573d6000803e3d6000fd5b50505050610958565b6109588186608001516000015167016345785d8a000086610aa3565b606082600061104f846002612fec565b61105a906002612ede565b67ffffffffffffffff8111156110725761107261267c565b6040519080825280601f01601f19166020018201604052801561109c576020820181803683370190505b5090507f3000000000000000000000000000000000000000000000000000000000000000816000815181106110d3576110d3612d32565b60200101906001600160f81b031916908160001a9053507f78000000000000000000000000000000000000000000000000000000000000008160018151811061111e5761111e612d32565b60200101906001600160f81b031916908160001a9053506000611142856002612fec565b61114d906001612ede565b90505b60018111156111d2577f303132333435363738396162636465660000000000000000000000000000000083600f166010811061118e5761118e612d32565b1a60f81b8282815181106111a4576111a4612d32565b60200101906001600160f81b031916908160001a90535060049290921c916111cb81613003565b9050611150565b508115611215576040517fe22e27eb0000000000000000000000000000000000000000000000000000000081526004810186905260248101859052604401610771565b949350505050565b60408051808201909152606081526000602082015261123d60208361301a565b156112655761124d60208361301a565b611258906020612f0d565b6112629083612ede565b91505b60208084018390526040518085526000815290818401018181101561128957600080fd5b604052509192915050565b81516112a39060e0831761145d565b505050565b6040805180820190915260608152600060208201526000806112ca84826114c6565b92509050600281146112de576112de61303c565b6112e88483611548565b90845291506112f78483611704565b5067ffffffffffffffff166020840152509092915050565b61131761256b565b600080606061132685836114c6565b93509150600b821461133a5761133a61303c565b611344858461179c565b90855292506113538584611704565b67ffffffffffffffff909116602086015292506113708584611a16565b901515604086015292506113848584611548565b9350905061139181611ab2565b60608501526113a08584611548565b935090506113ad81611ab2565b60808501526113bc8584611b0e565b60a086019190915292506113d08584611cab565b60079190910b60c086015292506113e78584611cab565b60079190910b60e0860152925060606114008685611548565b9450905061140d81611cc5565b610100860152606061141f8786611548565b9550905061142c81611cc5565b610120870152606061143e8887611548565b9650905061144b81611cc5565b61014088015250949695505050505050565b6040805180820190915260608152600060208201528251516000611482826001612ede565b9050846020015182106114a3576114a38561149e836002612fec565b611e18565b84516020838201018581535080518211156114bc578181525b5093949350505050565b6000806000806114d68686611e35565b965090925067ffffffffffffffff16905060ff821660041461153a5760405162461bcd60e51b815260206004820152601f60248201527f696e76616c6964206d616a20286578706563746564204d616a417272617929006044820152606401610771565b9250839150505b9250929050565b606060008060006115598686611e35565b965090925067ffffffffffffffff16905060ff82166006148061157f575060ff82166002145b6115f15760405162461bcd60e51b815260206004820152602e60248201527f696e76616c6964206d616a20286578706563746564204d616a546167206f722060448201527f4d616a42797465537472696e67290000000000000000000000000000000000006064820152608401610771565b60051960ff83160161162b576116078686611e35565b965090925067ffffffffffffffff16905060ff821660021461162b5761162b61303c565b60006116378287612ede565b905060008267ffffffffffffffff8111156116545761165461267c565b6040519080825280601f01601f19166020018201604052801561167e576020820181803683370190505b5090506000875b838110156116e85789818151811061169f5761169f612d32565b602001015160f81c60f81b8383815181106116bc576116bc612d32565b60200101906001600160f81b031916908160001a905350816116dd81613052565b925050600101611685565b50816116f4858a612ede565b9650965050505050509250929050565b6000806000806117148686611e35565b965090925067ffffffffffffffff16905060ff82161561153a5760405162461bcd60e51b815260206004820152602560248201527f696e76616c6964206d616a20286578706563746564204d616a556e7369676e6560448201527f64496e74290000000000000000000000000000000000000000000000000000006064820152608401610771565b604080516020810190915260608152600080806117b98686611e35565b965090925067ffffffffffffffff16905060ff82166006146118435760405162461bcd60e51b815260206004820152602860248201527f6578706563746564206d616a6f72207479706520746167207768656e2070617260448201527f73696e67206369640000000000000000000000000000000000000000000000006064820152608401610771565b602a81146118935760405162461bcd60e51b815260206004820181905260248201527f657870656374656420746167203432207768656e2070617273696e67206369646044820152606401610771565b606061189f8787611548565b8097508192505050806000815181106118ba576118ba612d32565b01602001516001600160f81b0319161561193c5760405162461bcd60e51b815260206004820152602c60248201527f6578706563746564206669727374206279746520746f2062652030207768656e60448201527f2070617273696e672063696400000000000000000000000000000000000000006064820152608401610771565b604080516020810190915260608152600182516119599190612f0d565b67ffffffffffffffff8111156119715761197161267c565b6040519080825280601f01601f19166020018201604052801561199b576020820181803683370190505b50815260015b8251811015611a0a578281815181106119bc576119bc612d32565b016020015182516001600160f81b0319909116906119db600184612f0d565b815181106119eb576119eb612d32565b60200101906001600160f81b031916908160001a9053506001016119a1565b50979596505050505050565b600080600080611a268686611e35565b965090925067ffffffffffffffff16905060ff8216600714611a8a5760405162461bcd60e51b815260206004820152601f60248201527f696e76616c6964206d616a20286578706563746564204d616a4f7468657229006044820152606401610771565b6015811480611a995750601481145b611aa557611aa561303c565b6014141595939450505050565b6040805160208101909152606081526040805160208101909152828152611ad881612038565b610a9d576040517fe6c4247b00000000000000000000000000000000000000000000000000000000815260040160405180910390fd5b6040805180820190915260608152600060208201526000806000611b328686611e35565b965090925067ffffffffffffffff16905060ff821660021480611b58575060ff82166003145b611bca5760405162461bcd60e51b815260206004820152603560248201527f696e76616c6964206d616a20286578706563746564204d616a4279746553747260448201527f696e67206f72204d616a54657874537472696e672900000000000000000000006064820152608401610771565b6000611bd68287612ede565b905060008267ffffffffffffffff811115611bf357611bf361267c565b6040519080825280601f01601f191660200182016040528015611c1d576020820181803683370190505b5090506000875b83811015611c8757898181518110611c3e57611c3e612d32565b602001015160f81c60f81b838381518110611c5b57611c5b612d32565b60200101906001600160f81b031916908160001a90535081611c7c81613052565b925050600101611c24565b506040805180820190915282815260ff861660031460208201526116f4858a612ede565b60008080611cb98585612201565b90969095509350505050565b6040805180820190915260608152600060208201528151600003611d0e575050604080516080810182526001918101918252600060608201819052918152602081019190915290565b600060018351611d1e9190612f0d565b67ffffffffffffffff811115611d3657611d3661267c565b6040519080825280601f01601f191660200182016040528015611d60576020820181803683370190505b509050600083600081518110611d7857611d78612d32565b01602001516001600160f81b031916600160f81b03611d95575060015b60015b8451811015611dfd57848181518110611db357611db3612d32565b01602001516001600160f81b03191683611dce600184612f0d565b81518110611dde57611dde612d32565b60200101906001600160f81b031916908160001a905350600101611d98565b50604080518082019091529182521515602082015292915050565b8151611e24838361121d565b50611e2f83826122a7565b50505050565b600080600080611e4586866122cf565b9050611e52600186612ede565b94506007600582901c16601f8216601c8110611ed65760405162461bcd60e51b815260206004820152602560248201527f63616e6e6f742068616e646c652068656164657273207769746820657874726160448201527f203e2032370000000000000000000000000000000000000000000000000000006064820152608401610771565b60188160ff161015611ef45790945060ff1692508491506120319050565b8060ff16601803611f81576000611f0b89896122cf565b9050611f18600189612ede565b975060188160ff161015611f6e5760405162461bcd60e51b815260206004820152600c60248201527f696e76616c69642063626f7200000000000000000000000000000000000000006044820152606401610771565b9195505060ff1692508491506120319050565b8060ff16601903611fbb576000611f988989612345565b9050611fa5600289612ede565b97509195505061ffff1692508491506120319050565b8060ff16601a03611ff7576000611fd289896123a5565b9050611fdf600489612ede565b97509195505063ffffffff1692508491506120319050565b8060ff16601b1461200a5761200a61303c565b60006120168989612405565b9050612023600889612ede565b975091955090935085925050505b9250925092565b805180516000918291829061204f5761204f612d32565b01602001516001600160f81b0319160361207a578151516001108015610a9d5750505151600b101590565b81518051600160f81b919060009061209457612094612d32565b01602001516001600160f81b03191614806120f15750815180517f020000000000000000000000000000000000000000000000000000000000000091906000906120e0576120e0612d32565b01602001516001600160f81b031916145b156120ff5750515160151490565b815180517f0300000000000000000000000000000000000000000000000000000000000000919060009061213557612135612d32565b01602001516001600160f81b031916036121525750515160311490565b815180517f0400000000000000000000000000000000000000000000000000000000000000919060009061218857612188612d32565b01602001516001600160f81b0319161480156121e85750815180517f0a00000000000000000000000000000000000000000000000000000000000000919060019081106121d7576121d7612d32565b01602001516001600160f81b031916145b156121f65750515160161490565b505151610100101590565b6000806000806122118686611e35565b965090925067ffffffffffffffff16905060ff821660011480612235575060ff8216155b61153a5760405162461bcd60e51b815260206004820152603560248201527f696e76616c6964206d616a20286578706563746564204d616a5369676e65644960448201527f6e74206f72204d616a556e7369676e6564496e742900000000000000000000006064820152608401610771565b6040805180820190915260608152600060208201526122c883838451612465565b9392505050565b60006122dc826001612ede565b835110156123235760405162461bcd60e51b8152602060048201526014602482015273736c6963696e67206f7574206f662072616e676560601b6044820152606401610771565b82828151811061233557612335612d32565b016020015160f81c905092915050565b6000612352826002612ede565b835110156123995760405162461bcd60e51b8152602060048201526014602482015273736c6963696e67206f7574206f662072616e676560601b6044820152606401610771565b50016020015160f01c90565b60006123b2826004612ede565b835110156123f95760405162461bcd60e51b8152602060048201526014602482015273736c6963696e67206f7574206f662072616e676560601b6044820152606401610771565b50016020015160e01c90565b6000612412826008612ede565b835110156124595760405162461bcd60e51b8152602060048201526014602482015273736c6963696e67206f7574206f662072616e676560601b6044820152606401610771565b50016020015160c01c90565b604080518082019091526060815260006020820152825182111561248857600080fd5b83515160006124978483612ede565b905085602001518111156124b4576124b48661149e836002612fec565b8551805183820160200191600091808511156124ce578482525b505050602086015b6020861061250e57805182526124ed602083612ede565b91506124fa602082612ede565b9050612507602087612f0d565b95506124d6565b51815160001960208890036101000a0190811690199190911617905250849150509392505050565b604051806040016040528061255e604051806040016040528060608152602001600081525090565b8152602001600081525090565b6040805161018081019091526060610160820190815281908152602001600067ffffffffffffffff1681526020016000151581526020016125b86040518060200160405280606081525090565b81526020016125d36040518060200160405280606081525090565b81526020016125f76040518060400160405280606081526020016000151581525090565b8152602001600060070b8152602001600060070b815260200161262f6040518060400160405280606081526020016000151581525090565b81526020016126536040518060400160405280606081526020016000151581525090565b81526020016126776040518060400160405280606081526020016000151581525090565b905290565b634e487b7160e01b600052604160045260246000fd5b600082601f8301126126a357600080fd5b813567ffffffffffffffff808211156126be576126be61267c565b604051601f8301601f19908116603f011681019082821181831017156126e6576126e661267c565b816040528381528660208588010111156126ff57600080fd5b836020870160208301376000602085830101528094505050505092915050565b60006020828403121561273157600080fd5b813567ffffffffffffffff81111561274857600080fd5b61121584828501612692565b60008083601f84011261276657600080fd5b50813567ffffffffffffffff81111561277e57600080fd5b60208301915083602082850101111561154157600080fd5b600080600080600080608087890312156127af57600080fd5b863567ffffffffffffffff808211156127c757600080fd5b6127d38a838b01612754565b909850965060208901359150808211156127ec57600080fd5b506127f989828a01612754565b979a9699509760408101359660609091013595509350505050565b60006020828403121561282657600080fd5b5035919050565b60005b83811015612848578181015183820152602001612830565b50506000910152565b6000815180845261286981602086016020860161282d565b601f01601f19169290920160200192915050565b6040815260006128906040830185612851565b90506001600160a01b03831660208301529392505050565b60008060008060008060006080888a0312156128c357600080fd5b87359650602088013567ffffffffffffffff808211156128e257600080fd5b6128ee8b838c01612754565b909850965060408a013591508082111561290757600080fd5b6129138b838c01612754565b909650945060608a013591508082111561292c57600080fd5b506129398a828b01612754565b989b979a50959850939692959293505050565b60008083601f84011261295e57600080fd5b50813567ffffffffffffffff81111561297657600080fd5b6020830191508360208260051b850101111561154157600080fd5b600080600080600080606087890312156129aa57600080fd5b863567ffffffffffffffff808211156129c257600080fd5b6129ce8a838b0161294c565b909850965060208901359150808211156129e757600080fd5b6129f38a838b0161294c565b90965094506040890135915080821115612a0c57600080fd5b50612a1989828a0161294c565b979a9699509497509295939492505050565b803567ffffffffffffffff81168114612a4357600080fd5b919050565b600080600060608486031215612a5d57600080fd5b612a6684612a2b565b9250612a7460208501612a2b565b9150604084013567ffffffffffffffff811115612a9057600080fd5b612a9c86828701612692565b9150509250925092565b63ffffffff8416815267ffffffffffffffff83166020820152606060408201526000612ad56060830184612851565b95945050505050565b60008060208385031215612af157600080fd5b823567ffffffffffffffff811115612b0857600080fd5b611cb985828601612754565b634e487b7160e01b600052602160045260246000fd5b6020810160048310612b4c57634e487b7160e01b600052602160045260246000fd5b91905290565b602081526000825160806020840152612b6e60a0840182612851565b9050602084015160070b604084015267ffffffffffffffff6040850151166060840152606084015160808401528091505092915050565b600181811c90821680612bb957607f821691505b602082108103612bd957634e487b7160e01b600052602260045260246000fd5b50919050565b606081526000808554612bf181612ba5565b8060608601526080600180841660008114612c135760018114612c2f57612c61565b60ff1985166080890152608084151560051b8901019550612c61565b8a60005260208060002060005b86811015612c575781548b8201870152908401908201612c3c565b8a01608001975050505b50505050508281036020840152612c788186612851565b90508281036040840152612c8c8185612851565b9695505050505050565b8183823760009101908152919050565b81835281816020850137506000828201602090810191909152601f909101601f19169091010190565b868152608060208201526000612ce9608083018789612ca6565b8281036040840152612cfc818688612ca6565b915050826060830152979650505050505050565b600060208284031215612d2257600080fd5b815180151581146122c857600080fd5b634e487b7160e01b600052603260045260246000fd5b6000808335601e19843603018112612d5f57600080fd5b83018035915067ffffffffffffffff821115612d7a57600080fd5b60200191503681900382131561154157600080fd5b600060208284031215612da157600080fd5b81356001600160a01b03811681146122c857600080fd5b601f8211156112a3576000816000526020600020601f850160051c81016020861015612de15750805b601f850160051c820191505b81811015612e0057828155600101612ded565b505050505050565b815167ffffffffffffffff811115612e2257612e2261267c565b612e3681612e308454612ba5565b84612db8565b602080601f831160018114612e6b5760008415612e535750858301515b600019600386901b1c1916600185901b178555612e00565b600085815260208120601f198616915b82811015612e9a57888601518255948401946001909101908401612e7b565b5085821015612eb85787850151600019600388901b60f8161c191681555b5050505050600190811b01905550565b634e487b7160e01b600052601160045260246000fd5b80820180821115610a9d57610a9d612ec8565b60008251612f0381846020870161282d565b9190910192915050565b81810381811115610a9d57610a9d612ec8565b60006001600160a01b03808816835260a06020840152612f4360a0840188612851565b8381036040850152612f558188612851565b90508381036060850152612f698187612851565b9250508084166080840152509695505050505050565b606081526000612f926060830186612851565b8281036020840152612c788186612851565b600782810b9082900b03677fffffffffffffff198112677fffffffffffffff82131715610a9d57610a9d612ec8565b600060208284031215612fe557600080fd5b5051919050565b8082028115828204841417610a9d57610a9d612ec8565b60008161301257613012612ec8565b506000190190565b60008261303757634e487b7160e01b600052601260045260246000fd5b500690565b634e487b7160e01b600052600160045260246000fd5b60006001820161306457613064612ec8565b506001019056fea26469706673582212201561ed80e71b355363c1f22c1f545057377f62a1fdb66a3b068436435c239e3b64736f6c63430008170033",
  "devdoc": {
    "errors": {
      "InvalidAddress()": [
        {
          "details": "Thrown when a function is called with an invalid address."
        }
      ],
      "NotApprovedByGateway()": [
        {
          "details": "Thrown when the call is not approved by the Axelar Gateway."
        }
      ],
      "StringsInsufficientHexLength(uint256,uint256)": [
        {
          "details": "The `value` string doesn't fit in the specified `length`."
        }
      ]
    },
    "kind": "dev",
    "methods": {
      "execute(bytes32,string,string,bytes)": {
        "details": "This function ensures the call is approved by Axelar Gateway before execution. It uses a hash of the payload for validation and internally calls _execute for the actual command execution. Reverts if the validation fails.",
        "params": {
          "commandId": "The unique identifier of the cross-chain message being executed.",
          "payload": "The payload of the message payload.",
          "sourceAddress": "The address on the source chain that sent the message.",
          "sourceChain": "The name of the source chain from which the message originated."
        }
      },
      "gateway()": {
        "returns": {
          "_0": "The Axelar Gateway instance."
        }
      }
    },
    "version": 1
  },
  "userdoc": {
    "kind": "user",
    "methods": {
      "execute(bytes32,string,string,bytes)": {
        "notice": "Executes the cross-chain command after validating it with the Axelar Gateway."
      },
      "gateway()": {
        "notice": "Returns the address of the AxelarGateway contract."
      }
    },
    "version": 1
  },
  "storageLayout": {
    "storage": [
      {
        "astId": 6452,
        "contract": "contracts/destChain/Prover-Axelar.sol:DealClientAxl",
        "label": "pieceDeals",
        "offset": 0,
        "slot": "0",
        "type": "t_mapping(t_bytes_memory_ptr,t_uint64)"
      },
      {
        "astId": 6457,
        "contract": "contracts/destChain/Prover-Axelar.sol:DealClientAxl",
        "label": "pieceStatus",
        "offset": 0,
        "slot": "1",
        "type": "t_mapping(t_bytes_memory_ptr,t_enum(Status)6448)"
      },
      {
        "astId": 6461,
        "contract": "contracts/destChain/Prover-Axelar.sol:DealClientAxl",
        "label": "providerGasFunds",
        "offset": 0,
        "slot": "2",
        "type": "t_mapping(t_bytes_memory_ptr,t_uint256)"
      },
      {
        "astId": 6466,
        "contract": "contracts/destChain/Prover-Axelar.sol:DealClientAxl",
        "label": "chainIdToDestinationChain",
        "offset": 0,
        "slot": "3",
        "type": "t_mapping(t_uint256,t_struct(DestinationChain)6443_storage)"
      }
    ],
    "types": {
      "t_address": {
        "encoding": "inplace",
        "label": "address",
        "numberOfBytes": "20"
      },
      "t_bytes_memory_ptr": {
        "encoding": "bytes",
        "label": "bytes",
        "numberOfBytes": "32"
      },
      "t_enum(Status)6448": {
        "encoding": "inplace",
        "label": "enum DealClientAxl.Status",
        "numberOfBytes": "1"
      },
      "t_mapping(t_bytes_memory_ptr,t_enum(Status)6448)": {
        "encoding": "mapping",
        "key": "t_bytes_memory_ptr",
        "label": "mapping(bytes => enum DealClientAxl.Status)",
        "numberOfBytes": "32",
        "value": "t_enum(Status)6448"
      },
      "t_mapping(t_bytes_memory_ptr,t_uint256)": {
        "encoding": "mapping",
        "key": "t_bytes_memory_ptr",
        "label": "mapping(bytes => uint256)",
        "numberOfBytes": "32",
        "value": "t_uint256"
      },
      "t_mapping(t_bytes_memory_ptr,t_uint64)": {
        "encoding": "mapping",
        "key": "t_bytes_memory_ptr",
        "label": "mapping(bytes => uint64)",
        "numberOfBytes": "32",
        "value": "t_uint64"
      },
      "t_mapping(t_uint256,t_struct(DestinationChain)6443_storage)": {
        "encoding": "mapping",
        "key": "t_uint256",
        "label": "mapping(uint256 => struct DealClientAxl.DestinationChain)",
        "numberOfBytes": "32",
        "value": "t_struct(DestinationChain)6443_storage"
      },
      "t_string_storage": {
        "encoding": "bytes",
        "label": "string",
        "numberOfBytes": "32"
      },
      "t_struct(DestinationChain)6443_storage": {
        "encoding": "inplace",
        "label": "struct DealClientAxl.DestinationChain",
        "members": [
          {
            "astId": 6440,
            "contract": "contracts/destChain/Prover-Axelar.sol:DealClientAxl",
            "label": "chainName",
            "offset": 0,
            "slot": "0",
            "type": "t_string_storage"
          },
          {
            "astId": 6442,
            "contract": "contracts/destChain/Prover-Axelar.sol:DealClientAxl",
            "label": "destinationAddress",
            "offset": 0,
            "slot": "1",
            "type": "t_address"
          }
        ],
        "numberOfBytes": "64"
      },
      "t_uint256": {
        "encoding": "inplace",
        "label": "uint256",
        "numberOfBytes": "32"
      },
      "t_uint64": {
        "encoding": "inplace",
        "label": "uint64",
        "numberOfBytes": "8"
      }
    }
  }
}